{
  "address": "0xcF25bb41308c18317Dda9DfA593886E9475c97A6",
  "abi": [
    {
      "inputs": [],
      "stateMutability": "nonpayable",
      "type": "constructor"
    },
    {
      "inputs": [],
      "name": "AlreadyRegistered",
      "type": "error"
    },
    {
      "inputs": [],
      "name": "ContractPaused",
      "type": "error"
    },
    {
      "inputs": [],
      "name": "GameNotActive",
      "type": "error"
    },
    {
      "inputs": [],
      "name": "NotEnoughFunds",
      "type": "error"
    },
    {
      "inputs": [],
      "name": "NotEnoughMines",
      "type": "error"
    },
    {
      "inputs": [],
      "name": "NotEnoughTimePassed",
      "type": "error"
    },
    {
      "inputs": [],
      "name": "NotEnoughTorpedoes",
      "type": "error"
    },
    {
      "inputs": [
        {
          "internalType": "uint256",
          "name": "_gameId",
          "type": "uint256"
        }
      ],
      "name": "NotInvited",
      "type": "error"
    },
    {
      "inputs": [],
      "name": "NotYourGame",
      "type": "error"
    },
    {
      "inputs": [],
      "name": "NotYourTurn",
      "type": "error"
    },
    {
      "anonymous": false,
      "inputs": [
        {
          "indexed": true,
          "internalType": "address",
          "name": "_player1Address",
          "type": "address"
        },
        {
          "indexed": true,
          "internalType": "address",
          "name": "_player2Address",
          "type": "address"
        },
        {
          "indexed": true,
          "internalType": "uint256",
          "name": "_gameId",
          "type": "uint256"
        }
      ],
      "name": "GameOver",
      "type": "event"
    },
    {
      "anonymous": false,
      "inputs": [
        {
          "indexed": true,
          "internalType": "address",
          "name": "_player1Address",
          "type": "address"
        },
        {
          "indexed": true,
          "internalType": "address",
          "name": "_player2Address",
          "type": "address"
        },
        {
          "indexed": true,
          "internalType": "uint256",
          "name": "_gameId",
          "type": "uint256"
        }
      ],
      "name": "GameStarted",
      "type": "event"
    },
    {
      "anonymous": false,
      "inputs": [
        {
          "indexed": true,
          "internalType": "address",
          "name": "_player1Address",
          "type": "address"
        },
        {
          "indexed": true,
          "internalType": "address",
          "name": "_player2Address",
          "type": "address"
        },
        {
          "indexed": true,
          "internalType": "uint256",
          "name": "_gameId",
          "type": "uint256"
        }
      ],
      "name": "InviteToGame",
      "type": "event"
    },
    {
      "anonymous": false,
      "inputs": [
        {
          "indexed": true,
          "internalType": "address",
          "name": "_player1Address",
          "type": "address"
        },
        {
          "indexed": true,
          "internalType": "address",
          "name": "_player2Address",
          "type": "address"
        },
        {
          "indexed": true,
          "internalType": "uint256",
          "name": "_gameId",
          "type": "uint256"
        }
      ],
      "name": "JoinGame",
      "type": "event"
    },
    {
      "anonymous": false,
      "inputs": [
        {
          "indexed": true,
          "internalType": "address",
          "name": "_player1Address",
          "type": "address"
        },
        {
          "indexed": true,
          "internalType": "uint256",
          "name": "_gameId",
          "type": "uint256"
        }
      ],
      "name": "OpenGameCreated",
      "type": "event"
    },
    {
      "anonymous": false,
      "inputs": [
        {
          "indexed": true,
          "internalType": "address",
          "name": "_player1Address",
          "type": "address"
        },
        {
          "indexed": true,
          "internalType": "address",
          "name": "_player2Address",
          "type": "address"
        },
        {
          "indexed": true,
          "internalType": "uint256",
          "name": "_gameId",
          "type": "uint256"
        }
      ],
      "name": "OpenGameJoined",
      "type": "event"
    },
    {
      "anonymous": false,
      "inputs": [
        {
          "indexed": true,
          "internalType": "address",
          "name": "previousOwner",
          "type": "address"
        },
        {
          "indexed": true,
          "internalType": "address",
          "name": "newOwner",
          "type": "address"
        }
      ],
      "name": "OwnershipTransferred",
      "type": "event"
    },
    {
      "inputs": [
        {
          "internalType": "uint256",
          "name": "_gameId",
          "type": "uint256"
        }
      ],
      "name": "acceptInvite",
      "outputs": [],
      "stateMutability": "payable",
      "type": "function"
    },
    {
      "inputs": [],
      "name": "active",
      "outputs": [
        {
          "internalType": "bool",
          "name": "",
          "type": "bool"
        }
      ],
      "stateMutability": "view",
      "type": "function"
    },
    {
      "inputs": [
        {
          "internalType": "int256",
          "name": "_ratingA",
          "type": "int256"
        },
        {
          "internalType": "int256",
          "name": "_ratingB",
          "type": "int256"
        },
        {
          "internalType": "enum Status",
          "name": "_result",
          "type": "uint8"
        }
      ],
      "name": "calculateElo",
      "outputs": [
        {
          "internalType": "uint256",
          "name": "",
          "type": "uint256"
        },
        {
          "internalType": "uint256",
          "name": "",
          "type": "uint256"
        }
      ],
      "stateMutability": "pure",
      "type": "function"
    },
    {
      "inputs": [],
      "name": "createOrJoinRandomGame",
      "outputs": [],
      "stateMutability": "payable",
      "type": "function"
    },
    {
      "inputs": [
        {
          "internalType": "uint256",
          "name": "_gameId",
          "type": "uint256"
        }
      ],
      "name": "endGame",
      "outputs": [],
      "stateMutability": "nonpayable",
      "type": "function"
    },
    {
      "inputs": [],
      "name": "feeBalance",
      "outputs": [
        {
          "internalType": "uint256",
          "name": "",
          "type": "uint256"
        }
      ],
      "stateMutability": "view",
      "type": "function"
    },
    {
      "inputs": [],
      "name": "feePercent",
      "outputs": [
        {
          "internalType": "uint256",
          "name": "",
          "type": "uint256"
        }
      ],
      "stateMutability": "view",
      "type": "function"
    },
    {
      "inputs": [
        {
          "internalType": "uint256",
          "name": "_gameId",
          "type": "uint256"
        }
      ],
      "name": "forceMove",
      "outputs": [],
      "stateMutability": "nonpayable",
      "type": "function"
    },
    {
      "inputs": [],
      "name": "gameCost",
      "outputs": [
        {
          "internalType": "uint256",
          "name": "",
          "type": "uint256"
        }
      ],
      "stateMutability": "view",
      "type": "function"
    },
    {
      "inputs": [
        {
          "internalType": "uint256",
          "name": "",
          "type": "uint256"
        }
      ],
      "name": "games",
      "outputs": [
        {
          "internalType": "uint256",
          "name": "id",
          "type": "uint256"
        },
        {
          "internalType": "address",
          "name": "player1Address",
          "type": "address"
        },
        {
          "internalType": "address",
          "name": "player2Address",
          "type": "address"
        },
        {
          "components": [
            {
              "internalType": "address",
              "name": "ownerAddress",
              "type": "address"
            },
            {
              "components": [
                {
                  "internalType": "int256",
                  "name": "row",
                  "type": "int256"
                },
                {
                  "internalType": "int256",
                  "name": "col",
                  "type": "int256"
                }
              ],
              "internalType": "struct TheThirdLaw.Position",
              "name": "position",
              "type": "tuple"
            },
            {
              "components": [
                {
                  "internalType": "int256",
                  "name": "row",
                  "type": "int256"
                },
                {
                  "internalType": "int256",
                  "name": "col",
                  "type": "int256"
                }
              ],
              "internalType": "struct TheThirdLaw.Velocity",
              "name": "velocity",
              "type": "tuple"
            },
            {
              "internalType": "uint256",
              "name": "remainingTorpedoes",
              "type": "uint256"
            },
            {
              "internalType": "uint256",
              "name": "remainingMines",
              "type": "uint256"
            },
            {
              "components": [
                {
                  "components": [
                    {
                      "internalType": "int256",
                      "name": "row",
                      "type": "int256"
                    },
                    {
                      "internalType": "int256",
                      "name": "col",
                      "type": "int256"
                    }
                  ],
                  "internalType": "struct TheThirdLaw.Position",
                  "name": "position",
                  "type": "tuple"
                },
                {
                  "components": [
                    {
                      "internalType": "int256",
                      "name": "row",
                      "type": "int256"
                    },
                    {
                      "internalType": "int256",
                      "name": "col",
                      "type": "int256"
                    }
                  ],
                  "internalType": "struct TheThirdLaw.Velocity",
                  "name": "velocity",
                  "type": "tuple"
                },
                {
                  "internalType": "uint256",
                  "name": "remainingFuel",
                  "type": "uint256"
                }
              ],
              "internalType": "struct TheThirdLaw.Torpedo[]",
              "name": "torpedoes",
              "type": "tuple[]"
            },
            {
              "components": [
                {
                  "components": [
                    {
                      "internalType": "int256",
                      "name": "row",
                      "type": "int256"
                    },
                    {
                      "internalType": "int256",
                      "name": "col",
                      "type": "int256"
                    }
                  ],
                  "internalType": "struct TheThirdLaw.Position",
                  "name": "position",
                  "type": "tuple"
                }
              ],
              "internalType": "struct TheThirdLaw.Mine[]",
              "name": "mines",
              "type": "tuple[]"
            }
          ],
          "internalType": "struct TheThirdLaw.Ship",
          "name": "player1Ship",
          "type": "tuple"
        },
        {
          "components": [
            {
              "internalType": "address",
              "name": "ownerAddress",
              "type": "address"
            },
            {
              "components": [
                {
                  "internalType": "int256",
                  "name": "row",
                  "type": "int256"
                },
                {
                  "internalType": "int256",
                  "name": "col",
                  "type": "int256"
                }
              ],
              "internalType": "struct TheThirdLaw.Position",
              "name": "position",
              "type": "tuple"
            },
            {
              "components": [
                {
                  "internalType": "int256",
                  "name": "row",
                  "type": "int256"
                },
                {
                  "internalType": "int256",
                  "name": "col",
                  "type": "int256"
                }
              ],
              "internalType": "struct TheThirdLaw.Velocity",
              "name": "velocity",
              "type": "tuple"
            },
            {
              "internalType": "uint256",
              "name": "remainingTorpedoes",
              "type": "uint256"
            },
            {
              "internalType": "uint256",
              "name": "remainingMines",
              "type": "uint256"
            },
            {
              "components": [
                {
                  "components": [
                    {
                      "internalType": "int256",
                      "name": "row",
                      "type": "int256"
                    },
                    {
                      "internalType": "int256",
                      "name": "col",
                      "type": "int256"
                    }
                  ],
                  "internalType": "struct TheThirdLaw.Position",
                  "name": "position",
                  "type": "tuple"
                },
                {
                  "components": [
                    {
                      "internalType": "int256",
                      "name": "row",
                      "type": "int256"
                    },
                    {
                      "internalType": "int256",
                      "name": "col",
                      "type": "int256"
                    }
                  ],
                  "internalType": "struct TheThirdLaw.Velocity",
                  "name": "velocity",
                  "type": "tuple"
                },
                {
                  "internalType": "uint256",
                  "name": "remainingFuel",
                  "type": "uint256"
                }
              ],
              "internalType": "struct TheThirdLaw.Torpedo[]",
              "name": "torpedoes",
              "type": "tuple[]"
            },
            {
              "components": [
                {
                  "components": [
                    {
                      "internalType": "int256",
                      "name": "row",
                      "type": "int256"
                    },
                    {
                      "internalType": "int256",
                      "name": "col",
                      "type": "int256"
                    }
                  ],
                  "internalType": "struct TheThirdLaw.Position",
                  "name": "position",
                  "type": "tuple"
                }
              ],
              "internalType": "struct TheThirdLaw.Mine[]",
              "name": "mines",
              "type": "tuple[]"
            }
          ],
          "internalType": "struct TheThirdLaw.Ship",
          "name": "player2Ship",
          "type": "tuple"
        },
        {
          "internalType": "enum Status",
          "name": "status",
          "type": "uint8"
        },
        {
          "internalType": "uint256",
          "name": "value",
          "type": "uint256"
        },
        {
          "internalType": "address",
          "name": "currentPlayer",
          "type": "address"
        },
        {
          "internalType": "uint256",
          "name": "lastTurnTimestamp",
          "type": "uint256"
        }
      ],
      "stateMutability": "view",
      "type": "function"
    },
    {
      "inputs": [
        {
          "internalType": "uint256",
          "name": "_gameId",
          "type": "uint256"
        }
      ],
      "name": "getGame",
      "outputs": [
        {
          "components": [
            {
              "internalType": "uint256",
              "name": "id",
              "type": "uint256"
            },
            {
              "internalType": "address",
              "name": "player1Address",
              "type": "address"
            },
            {
              "internalType": "address",
              "name": "player2Address",
              "type": "address"
            },
            {
              "components": [
                {
                  "internalType": "address",
                  "name": "ownerAddress",
                  "type": "address"
                },
                {
                  "components": [
                    {
                      "internalType": "int256",
                      "name": "row",
                      "type": "int256"
                    },
                    {
                      "internalType": "int256",
                      "name": "col",
                      "type": "int256"
                    }
                  ],
                  "internalType": "struct TheThirdLaw.Position",
                  "name": "position",
                  "type": "tuple"
                },
                {
                  "components": [
                    {
                      "internalType": "int256",
                      "name": "row",
                      "type": "int256"
                    },
                    {
                      "internalType": "int256",
                      "name": "col",
                      "type": "int256"
                    }
                  ],
                  "internalType": "struct TheThirdLaw.Velocity",
                  "name": "velocity",
                  "type": "tuple"
                },
                {
                  "internalType": "uint256",
                  "name": "remainingTorpedoes",
                  "type": "uint256"
                },
                {
                  "internalType": "uint256",
                  "name": "remainingMines",
                  "type": "uint256"
                },
                {
                  "components": [
                    {
                      "components": [
                        {
                          "internalType": "int256",
                          "name": "row",
                          "type": "int256"
                        },
                        {
                          "internalType": "int256",
                          "name": "col",
                          "type": "int256"
                        }
                      ],
                      "internalType": "struct TheThirdLaw.Position",
                      "name": "position",
                      "type": "tuple"
                    },
                    {
                      "components": [
                        {
                          "internalType": "int256",
                          "name": "row",
                          "type": "int256"
                        },
                        {
                          "internalType": "int256",
                          "name": "col",
                          "type": "int256"
                        }
                      ],
                      "internalType": "struct TheThirdLaw.Velocity",
                      "name": "velocity",
                      "type": "tuple"
                    },
                    {
                      "internalType": "uint256",
                      "name": "remainingFuel",
                      "type": "uint256"
                    }
                  ],
                  "internalType": "struct TheThirdLaw.Torpedo[]",
                  "name": "torpedoes",
                  "type": "tuple[]"
                },
                {
                  "components": [
                    {
                      "components": [
                        {
                          "internalType": "int256",
                          "name": "row",
                          "type": "int256"
                        },
                        {
                          "internalType": "int256",
                          "name": "col",
                          "type": "int256"
                        }
                      ],
                      "internalType": "struct TheThirdLaw.Position",
                      "name": "position",
                      "type": "tuple"
                    }
                  ],
                  "internalType": "struct TheThirdLaw.Mine[]",
                  "name": "mines",
                  "type": "tuple[]"
                }
              ],
              "internalType": "struct TheThirdLaw.Ship",
              "name": "player1Ship",
              "type": "tuple"
            },
            {
              "components": [
                {
                  "internalType": "address",
                  "name": "ownerAddress",
                  "type": "address"
                },
                {
                  "components": [
                    {
                      "internalType": "int256",
                      "name": "row",
                      "type": "int256"
                    },
                    {
                      "internalType": "int256",
                      "name": "col",
                      "type": "int256"
                    }
                  ],
                  "internalType": "struct TheThirdLaw.Position",
                  "name": "position",
                  "type": "tuple"
                },
                {
                  "components": [
                    {
                      "internalType": "int256",
                      "name": "row",
                      "type": "int256"
                    },
                    {
                      "internalType": "int256",
                      "name": "col",
                      "type": "int256"
                    }
                  ],
                  "internalType": "struct TheThirdLaw.Velocity",
                  "name": "velocity",
                  "type": "tuple"
                },
                {
                  "internalType": "uint256",
                  "name": "remainingTorpedoes",
                  "type": "uint256"
                },
                {
                  "internalType": "uint256",
                  "name": "remainingMines",
                  "type": "uint256"
                },
                {
                  "components": [
                    {
                      "components": [
                        {
                          "internalType": "int256",
                          "name": "row",
                          "type": "int256"
                        },
                        {
                          "internalType": "int256",
                          "name": "col",
                          "type": "int256"
                        }
                      ],
                      "internalType": "struct TheThirdLaw.Position",
                      "name": "position",
                      "type": "tuple"
                    },
                    {
                      "components": [
                        {
                          "internalType": "int256",
                          "name": "row",
                          "type": "int256"
                        },
                        {
                          "internalType": "int256",
                          "name": "col",
                          "type": "int256"
                        }
                      ],
                      "internalType": "struct TheThirdLaw.Velocity",
                      "name": "velocity",
                      "type": "tuple"
                    },
                    {
                      "internalType": "uint256",
                      "name": "remainingFuel",
                      "type": "uint256"
                    }
                  ],
                  "internalType": "struct TheThirdLaw.Torpedo[]",
                  "name": "torpedoes",
                  "type": "tuple[]"
                },
                {
                  "components": [
                    {
                      "components": [
                        {
                          "internalType": "int256",
                          "name": "row",
                          "type": "int256"
                        },
                        {
                          "internalType": "int256",
                          "name": "col",
                          "type": "int256"
                        }
                      ],
                      "internalType": "struct TheThirdLaw.Position",
                      "name": "position",
                      "type": "tuple"
                    }
                  ],
                  "internalType": "struct TheThirdLaw.Mine[]",
                  "name": "mines",
                  "type": "tuple[]"
                }
              ],
              "internalType": "struct TheThirdLaw.Ship",
              "name": "player2Ship",
              "type": "tuple"
            },
            {
              "internalType": "enum Status",
              "name": "status",
              "type": "uint8"
            },
            {
              "internalType": "uint256",
              "name": "value",
              "type": "uint256"
            },
            {
              "internalType": "address",
              "name": "currentPlayer",
              "type": "address"
            },
            {
              "internalType": "uint256",
              "name": "lastTurnTimestamp",
              "type": "uint256"
            }
          ],
          "internalType": "struct TheThirdLaw.Game",
          "name": "",
          "type": "tuple"
        }
      ],
      "stateMutability": "view",
      "type": "function"
    },
    {
      "inputs": [
        {
          "internalType": "address",
          "name": "_playerAddress",
          "type": "address"
        }
      ],
      "name": "getGamesForPlayer",
      "outputs": [
        {
          "components": [
            {
              "internalType": "uint256",
              "name": "id",
              "type": "uint256"
            },
            {
              "internalType": "address",
              "name": "player1Address",
              "type": "address"
            },
            {
              "internalType": "address",
              "name": "player2Address",
              "type": "address"
            },
            {
              "components": [
                {
                  "internalType": "address",
                  "name": "ownerAddress",
                  "type": "address"
                },
                {
                  "components": [
                    {
                      "internalType": "int256",
                      "name": "row",
                      "type": "int256"
                    },
                    {
                      "internalType": "int256",
                      "name": "col",
                      "type": "int256"
                    }
                  ],
                  "internalType": "struct TheThirdLaw.Position",
                  "name": "position",
                  "type": "tuple"
                },
                {
                  "components": [
                    {
                      "internalType": "int256",
                      "name": "row",
                      "type": "int256"
                    },
                    {
                      "internalType": "int256",
                      "name": "col",
                      "type": "int256"
                    }
                  ],
                  "internalType": "struct TheThirdLaw.Velocity",
                  "name": "velocity",
                  "type": "tuple"
                },
                {
                  "internalType": "uint256",
                  "name": "remainingTorpedoes",
                  "type": "uint256"
                },
                {
                  "internalType": "uint256",
                  "name": "remainingMines",
                  "type": "uint256"
                },
                {
                  "components": [
                    {
                      "components": [
                        {
                          "internalType": "int256",
                          "name": "row",
                          "type": "int256"
                        },
                        {
                          "internalType": "int256",
                          "name": "col",
                          "type": "int256"
                        }
                      ],
                      "internalType": "struct TheThirdLaw.Position",
                      "name": "position",
                      "type": "tuple"
                    },
                    {
                      "components": [
                        {
                          "internalType": "int256",
                          "name": "row",
                          "type": "int256"
                        },
                        {
                          "internalType": "int256",
                          "name": "col",
                          "type": "int256"
                        }
                      ],
                      "internalType": "struct TheThirdLaw.Velocity",
                      "name": "velocity",
                      "type": "tuple"
                    },
                    {
                      "internalType": "uint256",
                      "name": "remainingFuel",
                      "type": "uint256"
                    }
                  ],
                  "internalType": "struct TheThirdLaw.Torpedo[]",
                  "name": "torpedoes",
                  "type": "tuple[]"
                },
                {
                  "components": [
                    {
                      "components": [
                        {
                          "internalType": "int256",
                          "name": "row",
                          "type": "int256"
                        },
                        {
                          "internalType": "int256",
                          "name": "col",
                          "type": "int256"
                        }
                      ],
                      "internalType": "struct TheThirdLaw.Position",
                      "name": "position",
                      "type": "tuple"
                    }
                  ],
                  "internalType": "struct TheThirdLaw.Mine[]",
                  "name": "mines",
                  "type": "tuple[]"
                }
              ],
              "internalType": "struct TheThirdLaw.Ship",
              "name": "player1Ship",
              "type": "tuple"
            },
            {
              "components": [
                {
                  "internalType": "address",
                  "name": "ownerAddress",
                  "type": "address"
                },
                {
                  "components": [
                    {
                      "internalType": "int256",
                      "name": "row",
                      "type": "int256"
                    },
                    {
                      "internalType": "int256",
                      "name": "col",
                      "type": "int256"
                    }
                  ],
                  "internalType": "struct TheThirdLaw.Position",
                  "name": "position",
                  "type": "tuple"
                },
                {
                  "components": [
                    {
                      "internalType": "int256",
                      "name": "row",
                      "type": "int256"
                    },
                    {
                      "internalType": "int256",
                      "name": "col",
                      "type": "int256"
                    }
                  ],
                  "internalType": "struct TheThirdLaw.Velocity",
                  "name": "velocity",
                  "type": "tuple"
                },
                {
                  "internalType": "uint256",
                  "name": "remainingTorpedoes",
                  "type": "uint256"
                },
                {
                  "internalType": "uint256",
                  "name": "remainingMines",
                  "type": "uint256"
                },
                {
                  "components": [
                    {
                      "components": [
                        {
                          "internalType": "int256",
                          "name": "row",
                          "type": "int256"
                        },
                        {
                          "internalType": "int256",
                          "name": "col",
                          "type": "int256"
                        }
                      ],
                      "internalType": "struct TheThirdLaw.Position",
                      "name": "position",
                      "type": "tuple"
                    },
                    {
                      "components": [
                        {
                          "internalType": "int256",
                          "name": "row",
                          "type": "int256"
                        },
                        {
                          "internalType": "int256",
                          "name": "col",
                          "type": "int256"
                        }
                      ],
                      "internalType": "struct TheThirdLaw.Velocity",
                      "name": "velocity",
                      "type": "tuple"
                    },
                    {
                      "internalType": "uint256",
                      "name": "remainingFuel",
                      "type": "uint256"
                    }
                  ],
                  "internalType": "struct TheThirdLaw.Torpedo[]",
                  "name": "torpedoes",
                  "type": "tuple[]"
                },
                {
                  "components": [
                    {
                      "components": [
                        {
                          "internalType": "int256",
                          "name": "row",
                          "type": "int256"
                        },
                        {
                          "internalType": "int256",
                          "name": "col",
                          "type": "int256"
                        }
                      ],
                      "internalType": "struct TheThirdLaw.Position",
                      "name": "position",
                      "type": "tuple"
                    }
                  ],
                  "internalType": "struct TheThirdLaw.Mine[]",
                  "name": "mines",
                  "type": "tuple[]"
                }
              ],
              "internalType": "struct TheThirdLaw.Ship",
              "name": "player2Ship",
              "type": "tuple"
            },
            {
              "internalType": "enum Status",
              "name": "status",
              "type": "uint8"
            },
            {
              "internalType": "uint256",
              "name": "value",
              "type": "uint256"
            },
            {
              "internalType": "address",
              "name": "currentPlayer",
              "type": "address"
            },
            {
              "internalType": "uint256",
              "name": "lastTurnTimestamp",
              "type": "uint256"
            }
          ],
          "internalType": "struct TheThirdLaw.Game[]",
          "name": "",
          "type": "tuple[]"
        }
      ],
      "stateMutability": "view",
      "type": "function"
    },
    {
      "inputs": [
        {
          "internalType": "address",
          "name": "_playerAddress",
          "type": "address"
        }
      ],
      "name": "getPlayer",
      "outputs": [
        {
          "components": [
            {
              "internalType": "address",
              "name": "ownerAddress",
              "type": "address"
            },
            {
              "internalType": "uint256[]",
              "name": "gameIds",
              "type": "uint256[]"
            },
            {
              "internalType": "uint256[]",
              "name": "inviteIds",
              "type": "uint256[]"
            },
            {
              "internalType": "uint256",
              "name": "victories",
              "type": "uint256"
            },
            {
              "internalType": "uint256",
              "name": "defaultVictories",
              "type": "uint256"
            },
            {
              "internalType": "uint256",
              "name": "defaultLosses",
              "type": "uint256"
            },
            {
              "internalType": "uint256",
              "name": "draws",
              "type": "uint256"
            },
            {
              "internalType": "uint256",
              "name": "losses",
              "type": "uint256"
            },
            {
              "internalType": "uint256",
              "name": "eloRating",
              "type": "uint256"
            },
            {
              "internalType": "uint256",
              "name": "currentShipId",
              "type": "uint256"
            }
          ],
          "internalType": "struct TheThirdLaw.Player",
          "name": "",
          "type": "tuple"
        }
      ],
      "stateMutability": "view",
      "type": "function"
    },
    {
      "inputs": [
        {
          "internalType": "address",
          "name": "_player2Address",
          "type": "address"
        }
      ],
      "name": "inviteToGame",
      "outputs": [],
      "stateMutability": "payable",
      "type": "function"
    },
    {
      "inputs": [],
      "name": "maxMines",
      "outputs": [
        {
          "internalType": "uint256",
          "name": "",
          "type": "uint256"
        }
      ],
      "stateMutability": "view",
      "type": "function"
    },
    {
      "inputs": [],
      "name": "maxTorpedoes",
      "outputs": [
        {
          "internalType": "uint256",
          "name": "",
          "type": "uint256"
        }
      ],
      "stateMutability": "view",
      "type": "function"
    },
    {
      "inputs": [],
      "name": "mineRange",
      "outputs": [
        {
          "internalType": "uint256",
          "name": "",
          "type": "uint256"
        }
      ],
      "stateMutability": "view",
      "type": "function"
    },
    {
      "inputs": [],
      "name": "owner",
      "outputs": [
        {
          "internalType": "address",
          "name": "",
          "type": "address"
        }
      ],
      "stateMutability": "view",
      "type": "function"
    },
    {
      "inputs": [],
      "name": "pause",
      "outputs": [],
      "stateMutability": "nonpayable",
      "type": "function"
    },
    {
      "inputs": [
        {
          "internalType": "address",
          "name": "",
          "type": "address"
        }
      ],
      "name": "players",
      "outputs": [
        {
          "internalType": "address",
          "name": "ownerAddress",
          "type": "address"
        },
        {
          "internalType": "uint256",
          "name": "victories",
          "type": "uint256"
        },
        {
          "internalType": "uint256",
          "name": "defaultVictories",
          "type": "uint256"
        },
        {
          "internalType": "uint256",
          "name": "defaultLosses",
          "type": "uint256"
        },
        {
          "internalType": "uint256",
          "name": "draws",
          "type": "uint256"
        },
        {
          "internalType": "uint256",
          "name": "losses",
          "type": "uint256"
        },
        {
          "internalType": "uint256",
          "name": "eloRating",
          "type": "uint256"
        },
        {
          "internalType": "uint256",
          "name": "currentShipId",
          "type": "uint256"
        }
      ],
      "stateMutability": "view",
      "type": "function"
    },
    {
      "inputs": [
        {
          "internalType": "uint256",
          "name": "_gameId",
          "type": "uint256"
        }
      ],
      "name": "rejectInvite",
      "outputs": [],
      "stateMutability": "nonpayable",
      "type": "function"
    },
    {
      "inputs": [],
      "name": "renounceOwnership",
      "outputs": [],
      "stateMutability": "nonpayable",
      "type": "function"
    },
    {
      "inputs": [
        {
          "internalType": "uint256",
          "name": "_feePercent",
          "type": "uint256"
        }
      ],
      "name": "setFeePercent",
      "outputs": [],
      "stateMutability": "nonpayable",
      "type": "function"
    },
    {
      "inputs": [
        {
          "internalType": "uint256",
          "name": "_gameCost",
          "type": "uint256"
        }
      ],
      "name": "setGameCost",
      "outputs": [],
      "stateMutability": "nonpayable",
      "type": "function"
    },
    {
      "inputs": [
        {
          "internalType": "uint256",
          "name": "_mineRange",
          "type": "uint256"
        }
      ],
      "name": "setMineRange",
      "outputs": [],
      "stateMutability": "nonpayable",
      "type": "function"
    },
    {
      "inputs": [
        {
          "internalType": "uint256",
          "name": "_maxMines",
          "type": "uint256"
        }
      ],
      "name": "setNumberMines",
      "outputs": [],
      "stateMutability": "nonpayable",
      "type": "function"
    },
    {
      "inputs": [
        {
          "internalType": "uint256",
          "name": "_maxTorpedoes",
          "type": "uint256"
        }
      ],
      "name": "setNumberTorpedoes",
      "outputs": [],
      "stateMutability": "nonpayable",
      "type": "function"
    },
    {
      "inputs": [
        {
          "internalType": "int256",
          "name": "_torpedoAccel",
          "type": "int256"
        }
      ],
      "name": "setTorpedoAccel",
      "outputs": [],
      "stateMutability": "nonpayable",
      "type": "function"
    },
    {
      "inputs": [
        {
          "internalType": "uint256",
          "name": "_torpedoFuel",
          "type": "uint256"
        }
      ],
      "name": "setTorpedoFuel",
      "outputs": [],
      "stateMutability": "nonpayable",
      "type": "function"
    },
    {
      "inputs": [
        {
          "internalType": "uint256",
          "name": "_gameId",
          "type": "uint256"
        },
        {
          "internalType": "enum LeftOrRight",
          "name": "_leftOrRight",
          "type": "uint8"
        },
        {
          "internalType": "enum UpOrDown",
          "name": "_upOrDown",
          "type": "uint8"
        },
        {
          "internalType": "enum Action",
          "name": "_action",
          "type": "uint8"
        }
      ],
      "name": "takeTurn",
      "outputs": [],
      "stateMutability": "nonpayable",
      "type": "function"
    },
    {
      "inputs": [],
      "name": "torpedoAccel",
      "outputs": [
        {
          "internalType": "int256",
          "name": "",
          "type": "int256"
        }
      ],
      "stateMutability": "view",
      "type": "function"
    },
    {
      "inputs": [],
      "name": "torpedoFuel",
      "outputs": [
        {
          "internalType": "uint256",
          "name": "",
          "type": "uint256"
        }
      ],
      "stateMutability": "view",
      "type": "function"
    },
    {
      "inputs": [],
      "name": "torpedoRange",
      "outputs": [
        {
          "internalType": "int256",
          "name": "",
          "type": "int256"
        }
      ],
      "stateMutability": "view",
      "type": "function"
    },
    {
      "inputs": [
        {
          "internalType": "address",
          "name": "newOwner",
          "type": "address"
        }
      ],
      "name": "transferOwnership",
      "outputs": [],
      "stateMutability": "nonpayable",
      "type": "function"
    },
    {
      "inputs": [],
      "name": "turnTimeout",
      "outputs": [
        {
          "internalType": "uint256",
          "name": "",
          "type": "uint256"
        }
      ],
      "stateMutability": "view",
      "type": "function"
    },
    {
      "inputs": [],
      "name": "withdrawFee",
      "outputs": [],
      "stateMutability": "nonpayable",
      "type": "function"
    }
  ],
  "transactionHash": "0xa22d23d7c430cbac327fc770553e3c6643e5312f41e7481a7ec0c31c26efcd08",
  "args": [],
  "numDeployments": 9,
  "solcInputHash": "91b162e7f18daa35a41c71d9bc9b5255",
  "bytecode": "0x608060405266038d7ea4c68000600455600a600555600060065560056007556005600855600a6009556002600a556001600b556001600c55620493e0600d556001600e60006101000a81548160ff0219169083151502179055506000600f553480156200006b57600080fd5b50620000773362000089565b601180546001018155600052620000d9565b600080546001600160a01b038381166001600160a01b0319831681178455604051919092169283917f8be0079c531659141344cd1fd0a4f28419497f9722a3daafe3b4186f6b6457e09190a35050565b61407980620000e96000396000f3fe60806040526004361061020f5760003560e01c80637fd6f15c11610118578063c1699a98116100a0578063d0399bb81161006f578063d0399bb8146105ca578063e2eb41ff146105ea578063e941fa7814610697578063f2fde38b146106ac578063f9d86073146106cc57600080fd5b8063c1699a981461056c578063c2e80b4714610574578063cab896dc14610594578063cd607b62146105aa57600080fd5b806391c87671116100e757806391c87671146104d9578063a2f77bcc146104f9578063b69667fe14610526578063bf8e917614610539578063c15e7e301461054c57600080fd5b80637fd6f15c146104515780638456cb591461046757806384d2957e1461047c5780638da5cb5b146104b157600080fd5b80635c12cd4b1161019b5780636cc4b0b71161016a5780636cc4b0b7146103d05780636d64aa06146103e6578063715018a6146103fc5780637ce3489b146104115780637f17b79d1461043157600080fd5b80635c12cd4b1461034d57806360b71d4e1461037a578063646162531461039057806367c5f6e5146103b057600080fd5b806341b02d71116101e257806341b02d71146102c957806346b9bfe4146102df5780634f764e3514610301578063544722af1461032157806356ce11751461033757600080fd5b806302fb0c5e146102145780630aa1b26614610243578063117a5b90146102705780633c6e43a9146102a5575b600080fd5b34801561022057600080fd5b50600e5461022e9060ff1681565b60405190151581526020015b60405180910390f35b34801561024f57600080fd5b5061026361025e366004613981565b6106e2565b60405161023a9190613bf0565b34801561027c57600080fd5b5061029061028b366004613c52565b610bb2565b60405161023a99989796959493929190613c6b565b3480156102b157600080fd5b506102bb60075481565b60405190815260200161023a565b3480156102d557600080fd5b506102bb600b5481565b3480156102eb57600080fd5b506102ff6102fa366004613c52565b610f0f565b005b34801561030d57600080fd5b506102ff61031c366004613c52565b610f1c565b34801561032d57600080fd5b506102bb600a5481565b34801561034357600080fd5b506102bb60085481565b34801561035957600080fd5b5061036d610368366004613981565b610f29565b60405161023a9190613d17565b34801561038657600080fd5b506102bb60065481565b34801561039c57600080fd5b506102ff6103ab366004613c52565b6110b0565b3480156103bc57600080fd5b506102ff6103cb366004613c52565b61119a565b3480156103dc57600080fd5b506102bb600d5481565b3480156103f257600080fd5b506102bb600c5481565b34801561040857600080fd5b506102ff6111a7565b34801561041d57600080fd5b506102ff61042c366004613c52565b6111bb565b34801561043d57600080fd5b506102ff61044c366004613c52565b6111c8565b34801561045d57600080fd5b506102bb60055481565b34801561047357600080fd5b506102ff6111d5565b34801561048857600080fd5b5061049c610497366004613dc8565b6111e9565b6040805192835260208301919091520161023a565b3480156104bd57600080fd5b506000546040516001600160a01b03909116815260200161023a565b3480156104e557600080fd5b506102ff6104f4366004613c52565b611318565b34801561050557600080fd5b50610519610514366004613c52565b611429565b60405161023a9190613e05565b6102ff610534366004613981565b6117e7565b6102ff610547366004613c52565b6119f8565b34801561055857600080fd5b506102ff610567366004613e25565b611b1e565b6102ff611bbd565b34801561058057600080fd5b506102ff61058f366004613c52565b611e96565b3480156105a057600080fd5b506102bb60045481565b3480156105b657600080fd5b506102ff6105c5366004613c52565b611ea3565b3480156105d657600080fd5b506102ff6105e5366004613c52565b611eb0565b3480156105f657600080fd5b50610652610605366004613981565b601060205260009081526040902080546003820154600483015460058401546006850154600786015460088701546009909701546001600160a01b03909616969495939492939192909188565b604080516001600160a01b0390991689526020890197909752958701949094526060860192909252608085015260a084015260c083015260e08201526101000161023a565b3480156106a357600080fd5b506102ff612008565b3480156106b857600080fd5b506102ff6106c7366004613981565b612046565b3480156106d857600080fd5b506102bb60095481565b6001600160a01b038116600090815260106020908152604080832060010180548251818502810185019093528083526060949383018282801561074457602002820191906000526020600020905b815481526020019060010190808311610730575b505050505090506000815167ffffffffffffffff81111561076757610767613e78565b6040519080825280602002602001820160405280156107a057816020015b61078d613836565b8152602001906001900390816107855790505b50905060005b8251811015610baa5760118382815181106107c3576107c3613e8e565b6020026020010151815481106107db576107db613e8e565b60009182526020808320604080516101208101825260199094029091018054845260018101546001600160a01b03908116858501526002820154811685840152825160e0810184526003830180549092168152835180850185526004840154815260058401548187015281860152835180850185526006840154815260078401548187015281850152600883015460608281019190915260098401546080830152600a8401805486518189028101890190975280875297989497918901969295939460a08701949391929184015b828210156109195760008481526020908190206040805160a0810182526005860290920180546060840190815260018083015460808601529084528251808401845260028301548152600383015481870152848601526004909101549183019190915290835290920191016108a9565b50505050815260200160088201805480602002602001604051908101604052809291908181526020016000905b8282101561098f57600084815260209081902060408051606081018252600286029092018054838501908152600191820154928401929092529082529083529092019101610946565b5050509152505081526040805160e081018252600c840180546001600160a01b0316825282518084018452600d8601548152600e8601546020828101919091528381019190915283518085018552600f8701548152601087015481830152838501526011860154606084015260128601546080840152601386018054855181840281018401909652808652958201959394929360a08601939260009084015b82821015610a9e5760008481526020908190206040805160a081018252600586029092018054606084019081526001808301546080860152908452825180840184526002830154815260038301548187015284860152600490910154918301919091529083529092019101610a2e565b50505050815260200160088201805480602002602001604051908101604052809291908181526020016000905b82821015610b1457600084815260209081902060408051606081018252600286029092018054838501908152600191820154928401929092529082529083529092019101610acb565b505050915250508152601582015460209091019060ff166007811115610b3c57610b3c613af9565b6007811115610b4d57610b4d613af9565b81526016820154602082015260178201546001600160a01b031660408201526018909101546060909101528251839083908110610b8c57610b8c613e8e565b60200260200101819052508080610ba290613eba565b9150506107a6565b509392505050565b60118181548110610bc257600080fd5b6000918252602080832060199092029091018054600182015460028301546040805160e0810182526003860180546001600160a01b03908116835283518085018552600489015481526005890154818b0152838a015283518085018552600689015481526007890154818b0152838501526008880154606084015260098801546080840152600a880180548551818c0281018c01909652808652979b50958116999416979195909460a0870194909284015b82821015610ce45760008481526020908190206040805160a081018252600586029092018054606084019081526001808301546080860152908452825180840184526002830154815260038301548187015284860152600490910154918301919091529083529092019101610c74565b50505050815260200160088201805480602002602001604051908101604052809291908181526020016000905b82821015610d5a57600084815260209081902060408051606081018252600286029092018054838501908152600191820154928401929092529082529083529092019101610d11565b505050915250506040805160e081018252600c840180546001600160a01b0316825282518084018452600d8601548152600e8601546020828101919091528084019190915283518085018552600f87015481526010870154818301528385015260118601546060840152601286015460808401526013860180548551818402810184019096528086529596959394929360a08601939260009084015b82821015610e665760008481526020908190206040805160a081018252600586029092018054606084019081526001808301546080860152908452825180840184526002830154815260038301548187015284860152600490910154918301919091529083529092019101610df6565b50505050815260200160088201805480602002602001604051908101604052809291908181526020016000905b82821015610edc57600084815260209081902060408051606081018252600286029092018054838501908152600191820154928401929092529082529083529092019101610e93565b50505091525050601582015460168301546017840154601890940154929360ff9092169290916001600160a01b03169089565b610f176120bc565b600b55565b610f246120bc565b600a55565b610f8860405180610140016040528060006001600160a01b031681526020016060815260200160608152602001600081526020016000815260200160008152602001600081526020016000815260200160008152602001600081525090565b6001600160a01b038083166000908152601060209081526040918290208251610140810184528154909416845260018101805484518185028101850190955280855291938584019390929083018282801561100257602002820191906000526020600020905b815481526020019060010190808311610fee575b505050505081526020016002820180548060200260200160405190810160405280929190818152602001828054801561105a57602002820191906000526020600020905b815481526020019060010190808311611046575b505050505081526020016003820154815260200160048201548152602001600582015481526020016006820154815260200160078201548152602001600882015481526020016009820154815250509050919050565b6000601182815481106110c5576110c5613e8e565b6000918252602090912060199091020190506006601582015460ff1660078111156110f2576110f2613af9565b1461110f5760405162a3097160e01b815260040160405180910390fd5b60018101546001600160a01b03163314801590611139575060028101546001600160a01b03163314155b1561115757604051631794a8af60e11b815260040160405180910390fd5b600d5460188201546111699042613ed3565b101561118857604051635ada9a9960e01b815260040160405180910390fd5b611196826000806000612116565b5050565b6111a26120bc565b600755565b6111af6120bc565b6111b960006124b3565b565b6111c36120bc565b600555565b6111d06120bc565b600455565b6111dd6120bc565b600e805460ff19169055565b600080806112236001611213600a6101906112048b8b613ee6565b61120e9190613f23565b612503565b61121e906001613f51565b612539565b90506000611232826001613ee6565b90506000600286600781111561124a5761124a613af9565b14806112675750600486600781111561126557611265613af9565b145b156112745750600161129a565b600586600781111561128857611288613af9565b036112955750600061129a565b506000195b60006112a582613f79565b905060006112b38584613ee6565b6112be906020613f95565b6112c8908b613f51565b905060006112d68584613ee6565b6112e1906020613f95565b6112eb908b613f51565b905060008212156112fb57600091505b6000811215611308575060005b909a909950975050505050505050565b336001600160a01b03166011828154811061133557611335613e8e565b60009182526020909120600260199092020101546001600160a01b0316146113785760405163da271c6960e01b8152600481018290526024015b60405180910390fd5b6011818154811061138b5761138b613e8e565b906000526020600020906019020160160154600660008282546113ae9190613fc5565b925050819055506000601182815481106113ca576113ca613e8e565b9060005260206000209060190201601601819055506007601182815481106113f4576113f4613e8e565b60009182526020909120601560199092020101805460ff1916600183600781111561142157611421613af9565b021790555050565b611431613836565b6011828154811061144457611444613e8e565b60009182526020808320604080516101208101825260199094029091018054845260018101546001600160a01b03908116858501526002820154811685840152825160e0810184526003830180549092168152835180850185526004840154815260058401548187015281860152835180850185526006840154815260078401548187015281850152600883015460608281019190915260098401546080830152600a8401805486518189028101890190975280875297989497918901969295939460a08701949391929184015b828210156115825760008481526020908190206040805160a081018252600586029092018054606084019081526001808301546080860152908452825180840184526002830154815260038301548187015284860152600490910154918301919091529083529092019101611512565b50505050815260200160088201805480602002602001604051908101604052809291908181526020016000905b828210156115f8576000848152602090819020604080516060810182526002860290920180548385019081526001918201549284019290925290825290835290920191016115af565b5050509152505081526040805160e081018252600c840180546001600160a01b0316825282518084018452600d8601548152600e8601546020828101919091528381019190915283518085018552600f8701548152601087015481830152838501526011860154606084015260128601546080840152601386018054855181840281018401909652808652958201959394929360a08601939260009084015b828210156117075760008481526020908190206040805160a081018252600586029092018054606084019081526001808301546080860152908452825180840184526002830154815260038301548187015284860152600490910154918301919091529083529092019101611697565b50505050815260200160088201805480602002602001604051908101604052809291908181526020016000905b8282101561177d57600084815260209081902060408051606081018252600286029092018054838501908152600191820154928401929092529082529083529092019101611734565b505050915250508152601582015460209091019060ff1660078111156117a5576117a5613af9565b60078111156117b6576117b6613af9565b81526016820154602082015260178201546001600160a01b0316604082015260189091015460609091015292915050565b600e5460ff1661180a5760405163ab35696f60e01b815260040160405180910390fd5b600454341461182c57604051631036b5ad60e31b815260040160405180910390fd5b336000908152601060205260409020546001600160a01b03166118525761185233612559565b6001600160a01b038181166000908152601060205260409020541661187a5761187a81612559565b60118054600181018083556000839052909182918290811061189e5761189e613e8e565b90600052602060002090601902016000018190555033601182815481106118c7576118c7613e8e565b906000526020600020906019020160010160006101000a8154816001600160a01b0302191690836001600160a01b03160217905550816011828154811061191057611910613e8e565b906000526020600020906019020160020160006101000a8154816001600160a01b0302191690836001600160a01b03160217905550346011828154811061195957611959613e8e565b600091825260208083206016601990930201919091019290925533808252601083526040808320600190810180548083018255908552858520018690556001600160a01b038716808552828520808301805480850182559087528787200188905560020180549283018155855294842001859055518493927f64104361ad73841dc20b552e4700f3f464329596092336a5e3c02d8862623b6691a45050565b6004543414611a1a57604051631036b5ad60e31b815260040160405180910390fd5b336001600160a01b031660118281548110611a3757611a37613e8e565b60009182526020909120600260199092020101546001600160a01b031614611a755760405163da271c6960e01b81526004810182905260240161136f565b3460118281548110611a8957611a89613e8e565b90600052602060002090601902016016016000828254611aa99190613fc5565b90915550611ab89050816126af565b80336001600160a01b031660118381548110611ad657611ad6613e8e565b600091825260208220600160199092020101546040516001600160a01b03909116917fbfd436d24d21060f278a8b528282bc3a5bca811b5e108e411c10ca75d65f646791a450565b600060118581548110611b3357611b33613e8e565b6000918252602090912060199091020190506006601582015460ff166007811115611b6057611b60613af9565b14611b7d5760405162a3097160e01b815260040160405180910390fd5b60178101546001600160a01b03163314611baa57604051631cc191eb60e31b815260040160405180910390fd5b611bb685858585612116565b5050505050565b600e5460ff16611be05760405163ab35696f60e01b815260040160405180910390fd5b6004543414611c0257604051631036b5ad60e31b815260040160405180910390fd5b336000908152601060205260409020546001600160a01b0316611c2857611c2833612559565b600f54600003611d545760118054600f81905560018101808355600083905290919082908110611c5a57611c5a613e8e565b906000526020600020906019020160000181905550336011600f5481548110611c8557611c85613e8e565b906000526020600020906019020160010160006101000a8154816001600160a01b0302191690836001600160a01b03160217905550346011600f5481548110611cd057611cd0613e8e565b600091825260208083206016601990930201919091019290925533808252601083526040808320600f8054600180840180548083018255908852888820019190915581546002909301805491820181558652958520909501559254925190917f9aa587534c85aa2ba48b98ff99fee0cc8eb86a8965d3f542170059a691760a9b91a3565b336011600f5481548110611d6a57611d6a613e8e565b906000526020600020906019020160020160006101000a8154816001600160a01b0302191690836001600160a01b03160217905550346011600f5481548110611db557611db5613e8e565b90600052602060002090601902016016016000828254611dd59190613fc5565b90915550503360009081526010602090815260408220600f8054600180840180548083018255908752858720019190915581546002909301805491820181558552929093209091015554611e28906126af565b600f54336001600160a01b03166011600f5481548110611e4a57611e4a613e8e565b600091825260208220600160199092020101546040516001600160a01b03909116917fb557d97ea9c1990e22ef70ef429658b7ee91548555170ee2e47762cf6382502291a46000600f55565b611e9e6120bc565b600855565b611eab6120bc565b600955565b336001600160a01b031660118281548110611ecd57611ecd613e8e565b60009182526020909120600160199092020101546001600160a01b031614801590611f305750336001600160a01b031660118281548110611f1057611f10613e8e565b60009182526020909120600260199092020101546001600160a01b031614155b15611f4e57604051631794a8af60e11b815260040160405180910390fd5b600660118281548110611f6357611f63613e8e565b600091825260209091206015601990920201015460ff166007811115611f8b57611f8b613af9565b14611fa85760405162a3097160e01b815260040160405180910390fd5b600d5460118281548110611fbe57611fbe613e8e565b90600052602060002090601902016018015442611fdb9190613ed3565b1015611ffa57604051635ada9a9960e01b815260040160405180910390fd5b612005816005612b1a565b50565b6120106120bc565b600654604051339180156108fc02916000818181858888f1935050505015801561203e573d6000803e3d6000fd5b506000600655565b61204e6120bc565b6001600160a01b0381166120b35760405162461bcd60e51b815260206004820152602660248201527f4f776e61626c653a206e6577206f776e657220697320746865207a65726f206160448201526564647265737360d01b606482015260840161136f565b612005816124b3565b6000546001600160a01b031633146111b95760405162461bcd60e51b815260206004820181905260248201527f4f776e61626c653a2063616c6c6572206973206e6f7420746865206f776e6572604482015260640161136f565b60006011858154811061212b5761212b613e8e565b600091825260208220600160199092020190810154601782015491935082916001600160a01b0391821691160361216b57505060038101600c8201612176565b5050600c8101600382015b600186600281111561218a5761218a613af9565b036121b25760018260030160010160008282546121a79190613ee6565b909155506121e99050565b60028660028111156121c6576121c6613af9565b036121e95760018260030160010160008282546121e39190613f51565b90915550505b60018560028111156121fd576121fd613af9565b0361222557600182600301600001600082825461221a9190613ee6565b9091555061225c9050565b600285600281111561223957612239613af9565b0361225c5760018260030160000160008282546122569190613f51565b90915550505b600184600281111561227057612270613af9565b0361235257816005015460000361229a5760405163bab1d9e760e01b815260040160405180910390fd5b60018260050160008282546122af9190613ed3565b90915550506040805160a08101825260018085015460608301908152600280870154608085015290835283518085018552600380880154825260048089015460208481019190915280870193845260095497870197885260078a01805480880182556000918252908290209751805160059092029098019081559681015195870195909555915180519386019390935591909201519083015591519101556123fd565b600284600281111561236657612366613af9565b036123fd57816006015460000361239057604051630adb358f60e11b815260040160405180910390fd5b60018260060160008282546123a59190613ed3565b9091555050604080516060810182526001808501546020808401918252600280880154958501959095529083526008860180548084018255600091825290829020935180519190950290930192835592909201519101555b61240682613138565b6124108383613177565b61241a83836131dc565b612428838383600801613258565b612436838284600701613325565b426018840155600183015460178401546001600160a01b039182169116036124835760028301546017840180546001600160a01b0319166001600160a01b039092169190911790556124aa565b60018301546017840180546001600160a01b0319166001600160a01b039092169190911790555b50505050505050565b600080546001600160a01b038381166001600160a01b0319831681178455604051919092169283917f8be0079c531659141344cd1fd0a4f28419497f9722a3daafe3b4186f6b6457e09190a35050565b60006001815b8381121561252f5761251b8583613f95565b91508061252781613fd8565b915050612509565b5090505b92915050565b600081612548846103e8613f95565b6125529190613f23565b9392505050565b6001600160a01b03818116600090815260106020526040902054161561259257604051630ea075bf60e21b815260040160405180910390fd5b60408051610140810182526001600160a01b0383811680835283516000808252602080830187528086019283528651828152808201885286880152606086018290526080860182905260a0860182905260c0860182905260e086018290526104b061010087015261012086018290529281526010835294909420835181546001600160a01b0319169316929092178255925180519293919261263a92600185019201906138a9565b50604082015180516126569160028401916020909101906138a9565b50606082015160038201556080820151600482015560a0820151600582015560c0820151600682015560e082015160078201556101008201516008820155610120909101516009909101556111966001826104b0613751565b6000601182815481106126c4576126c4613e8e565b906000526020600020906019020160030190506000601183815481106126ec576126ec613e8e565b600091825260208220600c60199092020101915061270b600243613ff0565b156127185760001961271b565b60015b90506011848154811061273057612730613e8e565b600091825260209091206001601990920201015483546001600160a01b0319166001600160a01b03909116178355604080518082019091528061277483600f613f95565b8152602001612783600f613f79565b90528051600185015560209081015160028086019190915560408051808201909152600080825292018290526003850182905560048501829055600754600586015560085460068601556127d79042613ff0565b156127e4576000196127e7565b60015b9050601185815481106127fc576127fc613e8e565b600091825260209091206002601990920201015483546001600160a01b0319166001600160a01b03909116178355604080518082019091528061284083600f613f95565b8152600f602091820152815160018601559081015160028086019190915560408051808201909152600080825292018290526003850182905560048501919091556007546005850155600854600685015561289b9044614004565b60000361292757601185815481106128b5576128b5613e8e565b906000526020600020906019020160010160009054906101000a90046001600160a01b0316601186815481106128ed576128ed613e8e565b906000526020600020906019020160170160006101000a8154816001600160a01b0302191690836001600160a01b031602179055506129a8565b6011858154811061293a5761293a613e8e565b906000526020600020906019020160020160009054906101000a90046001600160a01b03166011868154811061297257612972613e8e565b906000526020600020906019020160170160006101000a8154816001600160a01b0302191690836001600160a01b031602179055505b6006601186815481106129bd576129bd613e8e565b60009182526020909120601560199092020101805460ff191660018360078111156129ea576129ea613af9565b02179055506000606460055460118881548110612a0957612a09613e8e565b906000526020600020906019020160160154612a259190614018565b612a2f919061402f565b90508060066000828254612a439190613fc5565b925050819055508060118781548110612a5e57612a5e613e8e565b90600052602060002090601902016016016000828254612a7e9190613ed3565b925050819055508560118781548110612a9957612a99613e8e565b6000918252602090912060026019909202010154601180546001600160a01b039092169189908110612acd57612acd613e8e565b600091825260208220600160199092020101546040516001600160a01b03909116917fee0dca10a9957dad74da3fe318a3ccc561c46d96be0ab0b66e7aff32aab94cf391a4505050505050565b600060118381548110612b2f57612b2f613e8e565b90600052602060002090601902019050818160150160006101000a81548160ff02191690836007811115612b6557612b65613af9565b02179055506017810180546001600160a01b03191690556001826007811115612b9057612b90613af9565b03612c4f5760028101546001600160a01b03166000908152601060205260408120600301805460019290612bc5908490613fc5565b90915550506001818101546001600160a01b031660009081526010602052604081206007018054909190612bfa908490613fc5565b9091555050601681018054600091829055600283015460405191926001600160a01b039091169183156108fc0291849190818181858888f19350505050158015612c48573d6000803e3d6000fd5b5050613041565b6002826007811115612c6357612c63613af9565b03612d29576001818101546001600160a01b031660009081526010602052604081206003018054909190612c98908490613fc5565b909155505060028101546001600160a01b03166000908152601060205260408120600701805460019290612ccd908490613fc5565b9091555050601681018054600091829055600183015460405191926001600160a01b039091169183156108fc0291849190818181858888f19350505050158015612d1b573d6000803e3d6000fd5b505060006016820155613041565b6003826007811115612d3d57612d3d613af9565b03612e395760028101546001600160a01b03166000908152601060205260408120600401805460019290612d72908490613fc5565b90915550506001818101546001600160a01b031660009081526010602052604081206005018054909190612da7908490613fc5565b9091555050601681018054600091829055906064612dc683604b614018565b612dd0919061402f565b60028401546040519192506001600160a01b03169082156108fc029083906000818181858888f19350505050158015612e0d573d6000803e3d6000fd5b50612e188183613ed3565b91508160066000828254612e2c9190613fc5565b9091555061304192505050565b6004826007811115612e4d57612e4d613af9565b03612f1d576001818101546001600160a01b031660009081526010602052604081206004018054909190612e82908490613fc5565b909155505060028101546001600160a01b03166000908152601060205260408120600501805460019290612eb7908490613fc5565b9091555050601681018054600091829055906064612ed683604b614018565b612ee0919061402f565b60018401546040519192506001600160a01b03169082156108fc029083906000818181858888f19350505050158015612e0d573d6000803e3d6000fd5b6005826007811115612f3157612f31613af9565b03613041576001818101546001600160a01b031660009081526010602052604081206006018054909190612f66908490613fc5565b909155505060028101546001600160a01b03166000908152601060205260408120600601805460019290612f9b908490613fc5565b909155505060168101805460009182905590612fb860028361402f565b60018401546040519192506001600160a01b03169082156108fc029083906000818181858888f19350505050158015612ff5573d6000803e3d6000fd5b506130008183613ed3565b60028401546040519193506001600160a01b03169083156108fc029084906000818181858888f1935050505015801561303d573d6000803e3d6000fd5b5050505b60018101546001600160a01b03908116600090815260106020526040808220600890810154600286015490941683529082200154909182916130849190866111e9565b600180860180546001600160a01b03908116600090815260106020526040808220600890810188905560028b01548416835291200184905590549395509193506130d19290911684613751565b5060028301546130ed906001906001600160a01b031683613751565b506002830154600184015460405187926001600160a01b039081169216907fd13e8f06e2982264b04d30acdae3d74f4241e1dde5c38af5f6a38820d14348f590600090a45050505050565b6003810154600182018054600090613151908490613f51565b9091555050600481015460028201805460009061316f908490613f51565b909155505050565b6014613189826001016000015461376f565b13806131a4575060146131a2826001016001015461376f565b135b1561119657600182015481546001600160a01b039182169116036131cf578154611196906003612b1a565b8154611196906004612b1a565b600a61322082600101604051806040016040529081600082015481526020016001820154815250506040518060400160405280600081526020016000815250613786565b1161119657600182015481546001600160a01b0391821691160361324b578154611196906001612b1a565b8154611196906002612b1a565b60005b815481101561331f57600a5460408051808201909152600185015481526002850154602082015283546132d0919085908590811061329b5761329b613e8e565b906000526020600020906002020160000160405180604001604052908160008201548152602001600182015481525050613786565b1161330d57600184015483546001600160a01b039182169116036133005783546132fb906001612b1a565b61330d565b835461330d906002612b1a565b8061331781613eba565b91505061325b565b50505050565b60005b815481101561331f5781818154811061334357613343613e8e565b9060005260206000209060050201600401546000031561373f57600182828154811061337157613371613e8e565b906000526020600020906005020160040160008282546133919190613ed3565b9250508190555060008282815481106133ac576133ac613e8e565b600091825260209091206005909102015460018501546133cc9190613ee6565b905060008383815481106133e2576133e2613e8e565b600091825260209091206001600590920201015460028601546134059190613ee6565b9050600082131561345257600184848154811061342457613424613e8e565b906000526020600020906005020160020160000160008282546134479190613f51565b909155506134989050565b600082121561349857600184848154811061346f5761346f613e8e565b906000526020600020906005020160020160000160008282546134929190613ee6565b90915550505b60008113156134e35760018484815481106134b5576134b5613e8e565b906000526020600020906005020160020160010160008282546134d89190613f51565b909155506135299050565b600081121561352957600184848154811061350057613500613e8e565b906000526020600020906005020160020160010160008282546135239190613ee6565b90915550505b83838154811061353b5761353b613e8e565b90600052602060002090600502016002016000015484848154811061356257613562613e8e565b906000526020600020906005020160000160000160008282546135859190613f51565b9250508190555083838154811061359e5761359e613e8e565b9060005260206000209060050201600201600101548484815481106135c5576135c5613e8e565b906000526020600020906005020160000160010160008282546135e89190613f51565b92505081905550600c5461362f866001016000015486868154811061360f5761360f613e8e565b600091825260209091206005909102015461362a9190613ee6565b61376f565b1315801561367a5750600c54613677866001016001015486868154811061365857613658613e8e565b90600052602060002090600502016000016001015461362a9190613ee6565b13155b156136b757600186015485546001600160a01b039182169116036136aa5785546136a5906001612b1a565b6136b7565b85546136b7906002612b1a565b600a61370d8585815481106136ce576136ce613e8e565b60009182526020808320604080518082018252600590940290910180548452600101548383015280518082019091528381529081019290925290613786565b1161373c57600084848154811061372657613726613e8e565b9060005260206000209060050201600401819055505b50505b8061374981613eba565b915050613328565b6000613767846001600160a01b038516846137ba565b949350505050565b6000808212156137825761253382613f79565b5090565b600061379f8260200151846020015161362a9190613ee6565b825184516137b09161362a91613ee6565b6125529190613f51565b6000828152600284016020526040812082905561376784846000612552838360006137f8838360009081526001919091016020526040902054151590565b61382e57508154600181810184556000848152602080822090930184905584548482528286019093526040902091909155612533565b506000612533565b6040518061012001604052806000815260200160006001600160a01b0316815260200160006001600160a01b031681526020016138716138f0565b815260200161387e6138f0565b8152602001600081526020016000815260200160006001600160a01b03168152602001600081525090565b8280548282559060005260206000209081019282156138e4579160200282015b828111156138e45782518255916020019190600101906138c9565b5061378292915061396c565b6040518060e0016040528060006001600160a01b03168152602001613928604051806040016040528060008152602001600081525090565b815260200161394a604051806040016040528060008152602001600081525090565b8152602001600081526020016000815260200160608152602001606081525090565b5b80821115613782576000815560010161396d565b60006020828403121561399357600080fd5b81356001600160a01b038116811461255257600080fd5b600081518084526020808501945080840160005b838110156139ef576139dc8783515180518252602090810151910152565b60409690960195908201906001016139be565b509495945050505050565b80516001600160a01b0316825260208082015180518285015280820151604085015260009161012091858301919050604085810151805160608901526020810151608089015250606086015160a08881019190915260808088015160c08a01528188015160e08a01969096528551948590526101408901958401949091906000905b80821015613ad1578651613a9b89825180518252602090810151910152565b86810151613ab5878b018280518252602090810151910152565b5085015188850152968201969585019560019190910190613a7c565b5050505050505060c0830151848203610100860152613af082826139aa565b95945050505050565b634e487b7160e01b600052602160045260246000fd5b60088110613b2d57634e487b7160e01b600052602160045260246000fd5b9052565b6000610120825184526020830151613b5460208601826001600160a01b03169052565b506040830151613b6f60408601826001600160a01b03169052565b506060830151816060860152613b87828601826139fa565b91505060808301518482036080860152613ba182826139fa565b91505060a0830151613bb660a0860182613b0f565b5060c083015160c085015260e0830151613bdb60e08601826001600160a01b03169052565b50610100928301519390920192909252919050565b6000602080830181845280855180835260408601915060408160051b870101925083870160005b82811015613c4557603f19888603018452613c33858351613b31565b94509285019290850190600101613c17565b5092979650505050505050565b600060208284031215613c6457600080fd5b5035919050565b8981526001600160a01b038981166020830152888116604083015261012060608301819052600091613c9f8483018b6139fa565b91508382036080850152613cb3828a6139fa565b9250613cc260a0850189613b0f565b8660c085015280861660e08501525050826101008301529a9950505050505050505050565b600081518084526020808501945080840160005b838110156139ef57815187529582019590820190600101613cfb565b60208152613d316020820183516001600160a01b03169052565b60006020830151610140806040850152613d4f610160850183613ce7565b91506040850151601f19858403016060860152613d6c8382613ce7565b92505060608501516080850152608085015160a085015260a085015160c085015260c085015160e085015260e0850151610100818187015280870151915050610120818187015280870151838701525050508091505092915050565b600080600060608486031215613ddd57600080fd5b8335925060208401359150604084013560088110613dfa57600080fd5b809150509250925092565b6020815260006125526020830184613b31565b6003811061200557600080fd5b60008060008060808587031215613e3b57600080fd5b843593506020850135613e4d81613e18565b92506040850135613e5d81613e18565b91506060850135613e6d81613e18565b939692955090935050565b634e487b7160e01b600052604160045260246000fd5b634e487b7160e01b600052603260045260246000fd5b634e487b7160e01b600052601160045260246000fd5b600060018201613ecc57613ecc613ea4565b5060010190565b8181038181111561253357612533613ea4565b8181036000831280158383131683831282161715613f0657613f06613ea4565b5092915050565b634e487b7160e01b600052601260045260246000fd5b600082613f3257613f32613f0d565b600160ff1b821460001984141615613f4c57613f4c613ea4565b500590565b8082018281126000831280158216821582161715613f7157613f71613ea4565b505092915050565b6000600160ff1b8201613f8e57613f8e613ea4565b5060000390565b80820260008212600160ff1b84141615613fb157613fb1613ea4565b818105831482151761253357612533613ea4565b8082018082111561253357612533613ea4565b60006001600160ff1b018201613ecc57613ecc613ea4565b600082613fff57613fff613f0d565b500790565b60008261401357614013613f0d565b500690565b808202811582820484141761253357612533613ea4565b60008261403e5761403e613f0d565b50049056fea264697066735822122051fef5451ddc93e2f3938563852863ee0c87b06064af19dd94ce3ffa9123fda464736f6c63430008130033",
  "devdoc": {
    "kind": "dev",
    "methods": {
      "owner()": {
        "details": "Returns the address of the current owner."
      },
      "renounceOwnership()": {
        "details": "Leaves the contract without owner. It will not be possible to call `onlyOwner` functions. Can only be called by the current owner. NOTE: Renouncing ownership will leave the contract without an owner, thereby disabling any functionality that is only available to the owner."
      },
      "transferOwnership(address)": {
        "details": "Transfers ownership of the contract to a new account (`newOwner`). Can only be called by the current owner."
      }
    },
    "version": 1
  },
  "userdoc": {
    "kind": "user",
    "methods": {},
    "version": 1
  },
  "storageLayout": {
    "storage": [
      {
        "astId": 7,
        "contract": "contracts/TheThirdLaw.sol:TheThirdLaw",
        "label": "_owner",
        "offset": 0,
        "slot": "0",
        "type": "t_address"
      },
      {
        "astId": 2081,
        "contract": "contracts/TheThirdLaw.sol:TheThirdLaw",
        "label": "addressToELO",
        "offset": 0,
        "slot": "1",
        "type": "t_struct(AddressToUintMap)900_storage"
      },
      {
        "astId": 2084,
        "contract": "contracts/TheThirdLaw.sol:TheThirdLaw",
        "label": "gameCost",
        "offset": 0,
        "slot": "4",
        "type": "t_uint256"
      },
      {
        "astId": 2087,
        "contract": "contracts/TheThirdLaw.sol:TheThirdLaw",
        "label": "feePercent",
        "offset": 0,
        "slot": "5",
        "type": "t_uint256"
      },
      {
        "astId": 2090,
        "contract": "contracts/TheThirdLaw.sol:TheThirdLaw",
        "label": "feeBalance",
        "offset": 0,
        "slot": "6",
        "type": "t_uint256"
      },
      {
        "astId": 2093,
        "contract": "contracts/TheThirdLaw.sol:TheThirdLaw",
        "label": "maxTorpedoes",
        "offset": 0,
        "slot": "7",
        "type": "t_uint256"
      },
      {
        "astId": 2096,
        "contract": "contracts/TheThirdLaw.sol:TheThirdLaw",
        "label": "maxMines",
        "offset": 0,
        "slot": "8",
        "type": "t_uint256"
      },
      {
        "astId": 2099,
        "contract": "contracts/TheThirdLaw.sol:TheThirdLaw",
        "label": "torpedoFuel",
        "offset": 0,
        "slot": "9",
        "type": "t_uint256"
      },
      {
        "astId": 2102,
        "contract": "contracts/TheThirdLaw.sol:TheThirdLaw",
        "label": "mineRange",
        "offset": 0,
        "slot": "10",
        "type": "t_uint256"
      },
      {
        "astId": 2105,
        "contract": "contracts/TheThirdLaw.sol:TheThirdLaw",
        "label": "torpedoAccel",
        "offset": 0,
        "slot": "11",
        "type": "t_int256"
      },
      {
        "astId": 2108,
        "contract": "contracts/TheThirdLaw.sol:TheThirdLaw",
        "label": "torpedoRange",
        "offset": 0,
        "slot": "12",
        "type": "t_int256"
      },
      {
        "astId": 2115,
        "contract": "contracts/TheThirdLaw.sol:TheThirdLaw",
        "label": "turnTimeout",
        "offset": 0,
        "slot": "13",
        "type": "t_uint256"
      },
      {
        "astId": 2118,
        "contract": "contracts/TheThirdLaw.sol:TheThirdLaw",
        "label": "active",
        "offset": 0,
        "slot": "14",
        "type": "t_bool"
      },
      {
        "astId": 2121,
        "contract": "contracts/TheThirdLaw.sol:TheThirdLaw",
        "label": "openGameId",
        "offset": 0,
        "slot": "15",
        "type": "t_uint256"
      },
      {
        "astId": 2126,
        "contract": "contracts/TheThirdLaw.sol:TheThirdLaw",
        "label": "players",
        "offset": 0,
        "slot": "16",
        "type": "t_mapping(t_address,t_struct(Player)2221_storage)"
      },
      {
        "astId": 2130,
        "contract": "contracts/TheThirdLaw.sol:TheThirdLaw",
        "label": "games",
        "offset": 0,
        "slot": "17",
        "type": "t_array(t_struct(Game)2198_storage)dyn_storage"
      }
    ],
    "types": {
      "t_address": {
        "encoding": "inplace",
        "label": "address",
        "numberOfBytes": "20"
      },
      "t_array(t_bytes32)dyn_storage": {
        "base": "t_bytes32",
        "encoding": "dynamic_array",
        "label": "bytes32[]",
        "numberOfBytes": "32"
      },
      "t_array(t_struct(Game)2198_storage)dyn_storage": {
        "base": "t_struct(Game)2198_storage",
        "encoding": "dynamic_array",
        "label": "struct TheThirdLaw.Game[]",
        "numberOfBytes": "32"
      },
      "t_array(t_struct(Mine)2255_storage)dyn_storage": {
        "base": "t_struct(Mine)2255_storage",
        "encoding": "dynamic_array",
        "label": "struct TheThirdLaw.Mine[]",
        "numberOfBytes": "32"
      },
      "t_array(t_struct(Torpedo)2251_storage)dyn_storage": {
        "base": "t_struct(Torpedo)2251_storage",
        "encoding": "dynamic_array",
        "label": "struct TheThirdLaw.Torpedo[]",
        "numberOfBytes": "32"
      },
      "t_array(t_uint256)dyn_storage": {
        "base": "t_uint256",
        "encoding": "dynamic_array",
        "label": "uint256[]",
        "numberOfBytes": "32"
      },
      "t_bool": {
        "encoding": "inplace",
        "label": "bool",
        "numberOfBytes": "1"
      },
      "t_bytes32": {
        "encoding": "inplace",
        "label": "bytes32",
        "numberOfBytes": "32"
      },
      "t_enum(Status)2072": {
        "encoding": "inplace",
        "label": "enum Status",
        "numberOfBytes": "1"
      },
      "t_int256": {
        "encoding": "inplace",
        "label": "int256",
        "numberOfBytes": "32"
      },
      "t_mapping(t_address,t_struct(Player)2221_storage)": {
        "encoding": "mapping",
        "key": "t_address",
        "label": "mapping(address => struct TheThirdLaw.Player)",
        "numberOfBytes": "32",
        "value": "t_struct(Player)2221_storage"
      },
      "t_mapping(t_bytes32,t_bytes32)": {
        "encoding": "mapping",
        "key": "t_bytes32",
        "label": "mapping(bytes32 => bytes32)",
        "numberOfBytes": "32",
        "value": "t_bytes32"
      },
      "t_mapping(t_bytes32,t_uint256)": {
        "encoding": "mapping",
        "key": "t_bytes32",
        "label": "mapping(bytes32 => uint256)",
        "numberOfBytes": "32",
        "value": "t_uint256"
      },
      "t_struct(AddressToUintMap)900_storage": {
        "encoding": "inplace",
        "label": "struct EnumerableMap.AddressToUintMap",
        "members": [
          {
            "astId": 899,
            "contract": "contracts/TheThirdLaw.sol:TheThirdLaw",
            "label": "_inner",
            "offset": 0,
            "slot": "0",
            "type": "t_struct(Bytes32ToBytes32Map)150_storage"
          }
        ],
        "numberOfBytes": "96"
      },
      "t_struct(Bytes32Set)1597_storage": {
        "encoding": "inplace",
        "label": "struct EnumerableSet.Bytes32Set",
        "members": [
          {
            "astId": 1596,
            "contract": "contracts/TheThirdLaw.sol:TheThirdLaw",
            "label": "_inner",
            "offset": 0,
            "slot": "0",
            "type": "t_struct(Set)1403_storage"
          }
        ],
        "numberOfBytes": "64"
      },
      "t_struct(Bytes32ToBytes32Map)150_storage": {
        "encoding": "inplace",
        "label": "struct EnumerableMap.Bytes32ToBytes32Map",
        "members": [
          {
            "astId": 145,
            "contract": "contracts/TheThirdLaw.sol:TheThirdLaw",
            "label": "_keys",
            "offset": 0,
            "slot": "0",
            "type": "t_struct(Bytes32Set)1597_storage"
          },
          {
            "astId": 149,
            "contract": "contracts/TheThirdLaw.sol:TheThirdLaw",
            "label": "_values",
            "offset": 0,
            "slot": "2",
            "type": "t_mapping(t_bytes32,t_bytes32)"
          }
        ],
        "numberOfBytes": "96"
      },
      "t_struct(Game)2198_storage": {
        "encoding": "inplace",
        "label": "struct TheThirdLaw.Game",
        "members": [
          {
            "astId": 2178,
            "contract": "contracts/TheThirdLaw.sol:TheThirdLaw",
            "label": "id",
            "offset": 0,
            "slot": "0",
            "type": "t_uint256"
          },
          {
            "astId": 2180,
            "contract": "contracts/TheThirdLaw.sol:TheThirdLaw",
            "label": "player1Address",
            "offset": 0,
            "slot": "1",
            "type": "t_address"
          },
          {
            "astId": 2182,
            "contract": "contracts/TheThirdLaw.sol:TheThirdLaw",
            "label": "player2Address",
            "offset": 0,
            "slot": "2",
            "type": "t_address"
          },
          {
            "astId": 2185,
            "contract": "contracts/TheThirdLaw.sol:TheThirdLaw",
            "label": "player1Ship",
            "offset": 0,
            "slot": "3",
            "type": "t_struct(Ship)2242_storage"
          },
          {
            "astId": 2188,
            "contract": "contracts/TheThirdLaw.sol:TheThirdLaw",
            "label": "player2Ship",
            "offset": 0,
            "slot": "12",
            "type": "t_struct(Ship)2242_storage"
          },
          {
            "astId": 2191,
            "contract": "contracts/TheThirdLaw.sol:TheThirdLaw",
            "label": "status",
            "offset": 0,
            "slot": "21",
            "type": "t_enum(Status)2072"
          },
          {
            "astId": 2193,
            "contract": "contracts/TheThirdLaw.sol:TheThirdLaw",
            "label": "value",
            "offset": 0,
            "slot": "22",
            "type": "t_uint256"
          },
          {
            "astId": 2195,
            "contract": "contracts/TheThirdLaw.sol:TheThirdLaw",
            "label": "currentPlayer",
            "offset": 0,
            "slot": "23",
            "type": "t_address"
          },
          {
            "astId": 2197,
            "contract": "contracts/TheThirdLaw.sol:TheThirdLaw",
            "label": "lastTurnTimestamp",
            "offset": 0,
            "slot": "24",
            "type": "t_uint256"
          }
        ],
        "numberOfBytes": "800"
      },
      "t_struct(Mine)2255_storage": {
        "encoding": "inplace",
        "label": "struct TheThirdLaw.Mine",
        "members": [
          {
            "astId": 2254,
            "contract": "contracts/TheThirdLaw.sol:TheThirdLaw",
            "label": "position",
            "offset": 0,
            "slot": "0",
            "type": "t_struct(Position)2260_storage"
          }
        ],
        "numberOfBytes": "64"
      },
      "t_struct(Player)2221_storage": {
        "encoding": "inplace",
        "label": "struct TheThirdLaw.Player",
        "members": [
          {
            "astId": 2200,
            "contract": "contracts/TheThirdLaw.sol:TheThirdLaw",
            "label": "ownerAddress",
            "offset": 0,
            "slot": "0",
            "type": "t_address"
          },
          {
            "astId": 2203,
            "contract": "contracts/TheThirdLaw.sol:TheThirdLaw",
            "label": "gameIds",
            "offset": 0,
            "slot": "1",
            "type": "t_array(t_uint256)dyn_storage"
          },
          {
            "astId": 2206,
            "contract": "contracts/TheThirdLaw.sol:TheThirdLaw",
            "label": "inviteIds",
            "offset": 0,
            "slot": "2",
            "type": "t_array(t_uint256)dyn_storage"
          },
          {
            "astId": 2208,
            "contract": "contracts/TheThirdLaw.sol:TheThirdLaw",
            "label": "victories",
            "offset": 0,
            "slot": "3",
            "type": "t_uint256"
          },
          {
            "astId": 2210,
            "contract": "contracts/TheThirdLaw.sol:TheThirdLaw",
            "label": "defaultVictories",
            "offset": 0,
            "slot": "4",
            "type": "t_uint256"
          },
          {
            "astId": 2212,
            "contract": "contracts/TheThirdLaw.sol:TheThirdLaw",
            "label": "defaultLosses",
            "offset": 0,
            "slot": "5",
            "type": "t_uint256"
          },
          {
            "astId": 2214,
            "contract": "contracts/TheThirdLaw.sol:TheThirdLaw",
            "label": "draws",
            "offset": 0,
            "slot": "6",
            "type": "t_uint256"
          },
          {
            "astId": 2216,
            "contract": "contracts/TheThirdLaw.sol:TheThirdLaw",
            "label": "losses",
            "offset": 0,
            "slot": "7",
            "type": "t_uint256"
          },
          {
            "astId": 2218,
            "contract": "contracts/TheThirdLaw.sol:TheThirdLaw",
            "label": "eloRating",
            "offset": 0,
            "slot": "8",
            "type": "t_uint256"
          },
          {
            "astId": 2220,
            "contract": "contracts/TheThirdLaw.sol:TheThirdLaw",
            "label": "currentShipId",
            "offset": 0,
            "slot": "9",
            "type": "t_uint256"
          }
        ],
        "numberOfBytes": "320"
      },
      "t_struct(Position)2260_storage": {
        "encoding": "inplace",
        "label": "struct TheThirdLaw.Position",
        "members": [
          {
            "astId": 2257,
            "contract": "contracts/TheThirdLaw.sol:TheThirdLaw",
            "label": "row",
            "offset": 0,
            "slot": "0",
            "type": "t_int256"
          },
          {
            "astId": 2259,
            "contract": "contracts/TheThirdLaw.sol:TheThirdLaw",
            "label": "col",
            "offset": 0,
            "slot": "1",
            "type": "t_int256"
          }
        ],
        "numberOfBytes": "64"
      },
      "t_struct(Set)1403_storage": {
        "encoding": "inplace",
        "label": "struct EnumerableSet.Set",
        "members": [
          {
            "astId": 1398,
            "contract": "contracts/TheThirdLaw.sol:TheThirdLaw",
            "label": "_values",
            "offset": 0,
            "slot": "0",
            "type": "t_array(t_bytes32)dyn_storage"
          },
          {
            "astId": 1402,
            "contract": "contracts/TheThirdLaw.sol:TheThirdLaw",
            "label": "_indexes",
            "offset": 0,
            "slot": "1",
            "type": "t_mapping(t_bytes32,t_uint256)"
          }
        ],
        "numberOfBytes": "64"
      },
      "t_struct(Ship)2242_storage": {
        "encoding": "inplace",
        "label": "struct TheThirdLaw.Ship",
        "members": [
          {
            "astId": 2223,
            "contract": "contracts/TheThirdLaw.sol:TheThirdLaw",
            "label": "ownerAddress",
            "offset": 0,
            "slot": "0",
            "type": "t_address"
          },
          {
            "astId": 2226,
            "contract": "contracts/TheThirdLaw.sol:TheThirdLaw",
            "label": "position",
            "offset": 0,
            "slot": "1",
            "type": "t_struct(Position)2260_storage"
          },
          {
            "astId": 2229,
            "contract": "contracts/TheThirdLaw.sol:TheThirdLaw",
            "label": "velocity",
            "offset": 0,
            "slot": "3",
            "type": "t_struct(Velocity)2265_storage"
          },
          {
            "astId": 2231,
            "contract": "contracts/TheThirdLaw.sol:TheThirdLaw",
            "label": "remainingTorpedoes",
            "offset": 0,
            "slot": "5",
            "type": "t_uint256"
          },
          {
            "astId": 2233,
            "contract": "contracts/TheThirdLaw.sol:TheThirdLaw",
            "label": "remainingMines",
            "offset": 0,
            "slot": "6",
            "type": "t_uint256"
          },
          {
            "astId": 2237,
            "contract": "contracts/TheThirdLaw.sol:TheThirdLaw",
            "label": "torpedoes",
            "offset": 0,
            "slot": "7",
            "type": "t_array(t_struct(Torpedo)2251_storage)dyn_storage"
          },
          {
            "astId": 2241,
            "contract": "contracts/TheThirdLaw.sol:TheThirdLaw",
            "label": "mines",
            "offset": 0,
            "slot": "8",
            "type": "t_array(t_struct(Mine)2255_storage)dyn_storage"
          }
        ],
        "numberOfBytes": "288"
      },
      "t_struct(Torpedo)2251_storage": {
        "encoding": "inplace",
        "label": "struct TheThirdLaw.Torpedo",
        "members": [
          {
            "astId": 2245,
            "contract": "contracts/TheThirdLaw.sol:TheThirdLaw",
            "label": "position",
            "offset": 0,
            "slot": "0",
            "type": "t_struct(Position)2260_storage"
          },
          {
            "astId": 2248,
            "contract": "contracts/TheThirdLaw.sol:TheThirdLaw",
            "label": "velocity",
            "offset": 0,
            "slot": "2",
            "type": "t_struct(Velocity)2265_storage"
          },
          {
            "astId": 2250,
            "contract": "contracts/TheThirdLaw.sol:TheThirdLaw",
            "label": "remainingFuel",
            "offset": 0,
            "slot": "4",
            "type": "t_uint256"
          }
        ],
        "numberOfBytes": "160"
      },
      "t_struct(Velocity)2265_storage": {
        "encoding": "inplace",
        "label": "struct TheThirdLaw.Velocity",
        "members": [
          {
            "astId": 2262,
            "contract": "contracts/TheThirdLaw.sol:TheThirdLaw",
            "label": "row",
            "offset": 0,
            "slot": "0",
            "type": "t_int256"
          },
          {
            "astId": 2264,
            "contract": "contracts/TheThirdLaw.sol:TheThirdLaw",
            "label": "col",
            "offset": 0,
            "slot": "1",
            "type": "t_int256"
          }
        ],
        "numberOfBytes": "64"
      },
      "t_uint256": {
        "encoding": "inplace",
        "label": "uint256",
        "numberOfBytes": "32"
      }
    }
  }
}