{
  "address": "0xF8987466fB50BFe6b75a6b9bC48AFe893a04988e",
  "abi": [
    {
      "inputs": [],
      "stateMutability": "nonpayable",
      "type": "constructor"
    },
    {
      "inputs": [],
      "name": "AlreadyRegistered",
      "type": "error"
    },
    {
      "inputs": [],
      "name": "ContractPaused",
      "type": "error"
    },
    {
      "inputs": [],
      "name": "GameNotActive",
      "type": "error"
    },
    {
      "inputs": [],
      "name": "NotEnoughFunds",
      "type": "error"
    },
    {
      "inputs": [],
      "name": "NotEnoughMines",
      "type": "error"
    },
    {
      "inputs": [],
      "name": "NotEnoughTimePassed",
      "type": "error"
    },
    {
      "inputs": [],
      "name": "NotEnoughTorpedoes",
      "type": "error"
    },
    {
      "inputs": [
        {
          "internalType": "uint256",
          "name": "_gameId",
          "type": "uint256"
        }
      ],
      "name": "NotInvited",
      "type": "error"
    },
    {
      "inputs": [],
      "name": "NotYourGame",
      "type": "error"
    },
    {
      "inputs": [],
      "name": "NotYourTurn",
      "type": "error"
    },
    {
      "anonymous": false,
      "inputs": [
        {
          "indexed": true,
          "internalType": "address",
          "name": "_player1Address",
          "type": "address"
        },
        {
          "indexed": true,
          "internalType": "address",
          "name": "_player2Address",
          "type": "address"
        },
        {
          "indexed": true,
          "internalType": "uint256",
          "name": "_gameId",
          "type": "uint256"
        }
      ],
      "name": "GameOver",
      "type": "event"
    },
    {
      "anonymous": false,
      "inputs": [
        {
          "indexed": true,
          "internalType": "address",
          "name": "_player1Address",
          "type": "address"
        },
        {
          "indexed": true,
          "internalType": "address",
          "name": "_player2Address",
          "type": "address"
        },
        {
          "indexed": true,
          "internalType": "uint256",
          "name": "_gameId",
          "type": "uint256"
        }
      ],
      "name": "GameStarted",
      "type": "event"
    },
    {
      "anonymous": false,
      "inputs": [
        {
          "indexed": true,
          "internalType": "address",
          "name": "_player1Address",
          "type": "address"
        },
        {
          "indexed": true,
          "internalType": "address",
          "name": "_player2Address",
          "type": "address"
        },
        {
          "indexed": true,
          "internalType": "uint256",
          "name": "_gameId",
          "type": "uint256"
        }
      ],
      "name": "InviteToGame",
      "type": "event"
    },
    {
      "anonymous": false,
      "inputs": [
        {
          "indexed": true,
          "internalType": "address",
          "name": "_player1Address",
          "type": "address"
        },
        {
          "indexed": true,
          "internalType": "address",
          "name": "_player2Address",
          "type": "address"
        },
        {
          "indexed": true,
          "internalType": "uint256",
          "name": "_gameId",
          "type": "uint256"
        }
      ],
      "name": "JoinGame",
      "type": "event"
    },
    {
      "anonymous": false,
      "inputs": [
        {
          "indexed": true,
          "internalType": "address",
          "name": "_player1Address",
          "type": "address"
        },
        {
          "indexed": true,
          "internalType": "uint256",
          "name": "_gameId",
          "type": "uint256"
        }
      ],
      "name": "OpenGameCreated",
      "type": "event"
    },
    {
      "anonymous": false,
      "inputs": [
        {
          "indexed": true,
          "internalType": "address",
          "name": "_player1Address",
          "type": "address"
        },
        {
          "indexed": true,
          "internalType": "address",
          "name": "_player2Address",
          "type": "address"
        },
        {
          "indexed": true,
          "internalType": "uint256",
          "name": "_gameId",
          "type": "uint256"
        }
      ],
      "name": "OpenGameJoined",
      "type": "event"
    },
    {
      "anonymous": false,
      "inputs": [
        {
          "indexed": true,
          "internalType": "address",
          "name": "previousOwner",
          "type": "address"
        },
        {
          "indexed": true,
          "internalType": "address",
          "name": "newOwner",
          "type": "address"
        }
      ],
      "name": "OwnershipTransferred",
      "type": "event"
    },
    {
      "inputs": [
        {
          "internalType": "uint256",
          "name": "_gameId",
          "type": "uint256"
        }
      ],
      "name": "acceptInvite",
      "outputs": [],
      "stateMutability": "payable",
      "type": "function"
    },
    {
      "inputs": [],
      "name": "active",
      "outputs": [
        {
          "internalType": "bool",
          "name": "",
          "type": "bool"
        }
      ],
      "stateMutability": "view",
      "type": "function"
    },
    {
      "inputs": [
        {
          "internalType": "int256",
          "name": "_ratingA",
          "type": "int256"
        },
        {
          "internalType": "int256",
          "name": "_ratingB",
          "type": "int256"
        },
        {
          "internalType": "enum Status",
          "name": "_result",
          "type": "uint8"
        }
      ],
      "name": "calculateElo",
      "outputs": [
        {
          "internalType": "uint256",
          "name": "",
          "type": "uint256"
        },
        {
          "internalType": "uint256",
          "name": "",
          "type": "uint256"
        }
      ],
      "stateMutability": "pure",
      "type": "function"
    },
    {
      "inputs": [],
      "name": "createOrJoinRandomGame",
      "outputs": [],
      "stateMutability": "payable",
      "type": "function"
    },
    {
      "inputs": [
        {
          "internalType": "uint256",
          "name": "_gameId",
          "type": "uint256"
        }
      ],
      "name": "endGame",
      "outputs": [],
      "stateMutability": "nonpayable",
      "type": "function"
    },
    {
      "inputs": [],
      "name": "feeBalance",
      "outputs": [
        {
          "internalType": "uint256",
          "name": "",
          "type": "uint256"
        }
      ],
      "stateMutability": "view",
      "type": "function"
    },
    {
      "inputs": [],
      "name": "feePercent",
      "outputs": [
        {
          "internalType": "uint256",
          "name": "",
          "type": "uint256"
        }
      ],
      "stateMutability": "view",
      "type": "function"
    },
    {
      "inputs": [
        {
          "internalType": "uint256",
          "name": "_gameId",
          "type": "uint256"
        }
      ],
      "name": "forceMove",
      "outputs": [],
      "stateMutability": "nonpayable",
      "type": "function"
    },
    {
      "inputs": [],
      "name": "gameCost",
      "outputs": [
        {
          "internalType": "uint256",
          "name": "",
          "type": "uint256"
        }
      ],
      "stateMutability": "view",
      "type": "function"
    },
    {
      "inputs": [
        {
          "internalType": "uint256",
          "name": "",
          "type": "uint256"
        }
      ],
      "name": "games",
      "outputs": [
        {
          "internalType": "uint256",
          "name": "id",
          "type": "uint256"
        },
        {
          "internalType": "address",
          "name": "player1Address",
          "type": "address"
        },
        {
          "internalType": "address",
          "name": "player2Address",
          "type": "address"
        },
        {
          "components": [
            {
              "internalType": "address",
              "name": "ownerAddress",
              "type": "address"
            },
            {
              "components": [
                {
                  "internalType": "int256",
                  "name": "row",
                  "type": "int256"
                },
                {
                  "internalType": "int256",
                  "name": "col",
                  "type": "int256"
                }
              ],
              "internalType": "struct TheThirdLaw.Position",
              "name": "position",
              "type": "tuple"
            },
            {
              "components": [
                {
                  "internalType": "int256",
                  "name": "row",
                  "type": "int256"
                },
                {
                  "internalType": "int256",
                  "name": "col",
                  "type": "int256"
                }
              ],
              "internalType": "struct TheThirdLaw.Velocity",
              "name": "velocity",
              "type": "tuple"
            },
            {
              "internalType": "uint256",
              "name": "remainingTorpedoes",
              "type": "uint256"
            },
            {
              "internalType": "uint256",
              "name": "remainingMines",
              "type": "uint256"
            },
            {
              "components": [
                {
                  "components": [
                    {
                      "internalType": "int256",
                      "name": "row",
                      "type": "int256"
                    },
                    {
                      "internalType": "int256",
                      "name": "col",
                      "type": "int256"
                    }
                  ],
                  "internalType": "struct TheThirdLaw.Position",
                  "name": "position",
                  "type": "tuple"
                },
                {
                  "components": [
                    {
                      "internalType": "int256",
                      "name": "row",
                      "type": "int256"
                    },
                    {
                      "internalType": "int256",
                      "name": "col",
                      "type": "int256"
                    }
                  ],
                  "internalType": "struct TheThirdLaw.Velocity",
                  "name": "velocity",
                  "type": "tuple"
                },
                {
                  "internalType": "uint256",
                  "name": "remainingFuel",
                  "type": "uint256"
                }
              ],
              "internalType": "struct TheThirdLaw.Torpedo[]",
              "name": "torpedoes",
              "type": "tuple[]"
            },
            {
              "components": [
                {
                  "components": [
                    {
                      "internalType": "int256",
                      "name": "row",
                      "type": "int256"
                    },
                    {
                      "internalType": "int256",
                      "name": "col",
                      "type": "int256"
                    }
                  ],
                  "internalType": "struct TheThirdLaw.Position",
                  "name": "position",
                  "type": "tuple"
                }
              ],
              "internalType": "struct TheThirdLaw.Mine[]",
              "name": "mines",
              "type": "tuple[]"
            }
          ],
          "internalType": "struct TheThirdLaw.Ship",
          "name": "player1Ship",
          "type": "tuple"
        },
        {
          "components": [
            {
              "internalType": "address",
              "name": "ownerAddress",
              "type": "address"
            },
            {
              "components": [
                {
                  "internalType": "int256",
                  "name": "row",
                  "type": "int256"
                },
                {
                  "internalType": "int256",
                  "name": "col",
                  "type": "int256"
                }
              ],
              "internalType": "struct TheThirdLaw.Position",
              "name": "position",
              "type": "tuple"
            },
            {
              "components": [
                {
                  "internalType": "int256",
                  "name": "row",
                  "type": "int256"
                },
                {
                  "internalType": "int256",
                  "name": "col",
                  "type": "int256"
                }
              ],
              "internalType": "struct TheThirdLaw.Velocity",
              "name": "velocity",
              "type": "tuple"
            },
            {
              "internalType": "uint256",
              "name": "remainingTorpedoes",
              "type": "uint256"
            },
            {
              "internalType": "uint256",
              "name": "remainingMines",
              "type": "uint256"
            },
            {
              "components": [
                {
                  "components": [
                    {
                      "internalType": "int256",
                      "name": "row",
                      "type": "int256"
                    },
                    {
                      "internalType": "int256",
                      "name": "col",
                      "type": "int256"
                    }
                  ],
                  "internalType": "struct TheThirdLaw.Position",
                  "name": "position",
                  "type": "tuple"
                },
                {
                  "components": [
                    {
                      "internalType": "int256",
                      "name": "row",
                      "type": "int256"
                    },
                    {
                      "internalType": "int256",
                      "name": "col",
                      "type": "int256"
                    }
                  ],
                  "internalType": "struct TheThirdLaw.Velocity",
                  "name": "velocity",
                  "type": "tuple"
                },
                {
                  "internalType": "uint256",
                  "name": "remainingFuel",
                  "type": "uint256"
                }
              ],
              "internalType": "struct TheThirdLaw.Torpedo[]",
              "name": "torpedoes",
              "type": "tuple[]"
            },
            {
              "components": [
                {
                  "components": [
                    {
                      "internalType": "int256",
                      "name": "row",
                      "type": "int256"
                    },
                    {
                      "internalType": "int256",
                      "name": "col",
                      "type": "int256"
                    }
                  ],
                  "internalType": "struct TheThirdLaw.Position",
                  "name": "position",
                  "type": "tuple"
                }
              ],
              "internalType": "struct TheThirdLaw.Mine[]",
              "name": "mines",
              "type": "tuple[]"
            }
          ],
          "internalType": "struct TheThirdLaw.Ship",
          "name": "player2Ship",
          "type": "tuple"
        },
        {
          "internalType": "enum Status",
          "name": "status",
          "type": "uint8"
        },
        {
          "internalType": "uint256",
          "name": "value",
          "type": "uint256"
        },
        {
          "internalType": "address",
          "name": "currentPlayer",
          "type": "address"
        },
        {
          "internalType": "uint256",
          "name": "lastTurnTimestamp",
          "type": "uint256"
        }
      ],
      "stateMutability": "view",
      "type": "function"
    },
    {
      "inputs": [],
      "name": "getAllELO",
      "outputs": [
        {
          "components": [
            {
              "internalType": "address",
              "name": "playerAddress",
              "type": "address"
            },
            {
              "internalType": "uint256",
              "name": "eloRating",
              "type": "uint256"
            }
          ],
          "internalType": "struct TheThirdLaw.PlayerELO[]",
          "name": "",
          "type": "tuple[]"
        }
      ],
      "stateMutability": "view",
      "type": "function"
    },
    {
      "inputs": [
        {
          "internalType": "uint256",
          "name": "_gameId",
          "type": "uint256"
        }
      ],
      "name": "getGame",
      "outputs": [
        {
          "components": [
            {
              "internalType": "uint256",
              "name": "id",
              "type": "uint256"
            },
            {
              "internalType": "address",
              "name": "player1Address",
              "type": "address"
            },
            {
              "internalType": "address",
              "name": "player2Address",
              "type": "address"
            },
            {
              "components": [
                {
                  "internalType": "address",
                  "name": "ownerAddress",
                  "type": "address"
                },
                {
                  "components": [
                    {
                      "internalType": "int256",
                      "name": "row",
                      "type": "int256"
                    },
                    {
                      "internalType": "int256",
                      "name": "col",
                      "type": "int256"
                    }
                  ],
                  "internalType": "struct TheThirdLaw.Position",
                  "name": "position",
                  "type": "tuple"
                },
                {
                  "components": [
                    {
                      "internalType": "int256",
                      "name": "row",
                      "type": "int256"
                    },
                    {
                      "internalType": "int256",
                      "name": "col",
                      "type": "int256"
                    }
                  ],
                  "internalType": "struct TheThirdLaw.Velocity",
                  "name": "velocity",
                  "type": "tuple"
                },
                {
                  "internalType": "uint256",
                  "name": "remainingTorpedoes",
                  "type": "uint256"
                },
                {
                  "internalType": "uint256",
                  "name": "remainingMines",
                  "type": "uint256"
                },
                {
                  "components": [
                    {
                      "components": [
                        {
                          "internalType": "int256",
                          "name": "row",
                          "type": "int256"
                        },
                        {
                          "internalType": "int256",
                          "name": "col",
                          "type": "int256"
                        }
                      ],
                      "internalType": "struct TheThirdLaw.Position",
                      "name": "position",
                      "type": "tuple"
                    },
                    {
                      "components": [
                        {
                          "internalType": "int256",
                          "name": "row",
                          "type": "int256"
                        },
                        {
                          "internalType": "int256",
                          "name": "col",
                          "type": "int256"
                        }
                      ],
                      "internalType": "struct TheThirdLaw.Velocity",
                      "name": "velocity",
                      "type": "tuple"
                    },
                    {
                      "internalType": "uint256",
                      "name": "remainingFuel",
                      "type": "uint256"
                    }
                  ],
                  "internalType": "struct TheThirdLaw.Torpedo[]",
                  "name": "torpedoes",
                  "type": "tuple[]"
                },
                {
                  "components": [
                    {
                      "components": [
                        {
                          "internalType": "int256",
                          "name": "row",
                          "type": "int256"
                        },
                        {
                          "internalType": "int256",
                          "name": "col",
                          "type": "int256"
                        }
                      ],
                      "internalType": "struct TheThirdLaw.Position",
                      "name": "position",
                      "type": "tuple"
                    }
                  ],
                  "internalType": "struct TheThirdLaw.Mine[]",
                  "name": "mines",
                  "type": "tuple[]"
                }
              ],
              "internalType": "struct TheThirdLaw.Ship",
              "name": "player1Ship",
              "type": "tuple"
            },
            {
              "components": [
                {
                  "internalType": "address",
                  "name": "ownerAddress",
                  "type": "address"
                },
                {
                  "components": [
                    {
                      "internalType": "int256",
                      "name": "row",
                      "type": "int256"
                    },
                    {
                      "internalType": "int256",
                      "name": "col",
                      "type": "int256"
                    }
                  ],
                  "internalType": "struct TheThirdLaw.Position",
                  "name": "position",
                  "type": "tuple"
                },
                {
                  "components": [
                    {
                      "internalType": "int256",
                      "name": "row",
                      "type": "int256"
                    },
                    {
                      "internalType": "int256",
                      "name": "col",
                      "type": "int256"
                    }
                  ],
                  "internalType": "struct TheThirdLaw.Velocity",
                  "name": "velocity",
                  "type": "tuple"
                },
                {
                  "internalType": "uint256",
                  "name": "remainingTorpedoes",
                  "type": "uint256"
                },
                {
                  "internalType": "uint256",
                  "name": "remainingMines",
                  "type": "uint256"
                },
                {
                  "components": [
                    {
                      "components": [
                        {
                          "internalType": "int256",
                          "name": "row",
                          "type": "int256"
                        },
                        {
                          "internalType": "int256",
                          "name": "col",
                          "type": "int256"
                        }
                      ],
                      "internalType": "struct TheThirdLaw.Position",
                      "name": "position",
                      "type": "tuple"
                    },
                    {
                      "components": [
                        {
                          "internalType": "int256",
                          "name": "row",
                          "type": "int256"
                        },
                        {
                          "internalType": "int256",
                          "name": "col",
                          "type": "int256"
                        }
                      ],
                      "internalType": "struct TheThirdLaw.Velocity",
                      "name": "velocity",
                      "type": "tuple"
                    },
                    {
                      "internalType": "uint256",
                      "name": "remainingFuel",
                      "type": "uint256"
                    }
                  ],
                  "internalType": "struct TheThirdLaw.Torpedo[]",
                  "name": "torpedoes",
                  "type": "tuple[]"
                },
                {
                  "components": [
                    {
                      "components": [
                        {
                          "internalType": "int256",
                          "name": "row",
                          "type": "int256"
                        },
                        {
                          "internalType": "int256",
                          "name": "col",
                          "type": "int256"
                        }
                      ],
                      "internalType": "struct TheThirdLaw.Position",
                      "name": "position",
                      "type": "tuple"
                    }
                  ],
                  "internalType": "struct TheThirdLaw.Mine[]",
                  "name": "mines",
                  "type": "tuple[]"
                }
              ],
              "internalType": "struct TheThirdLaw.Ship",
              "name": "player2Ship",
              "type": "tuple"
            },
            {
              "internalType": "enum Status",
              "name": "status",
              "type": "uint8"
            },
            {
              "internalType": "uint256",
              "name": "value",
              "type": "uint256"
            },
            {
              "internalType": "address",
              "name": "currentPlayer",
              "type": "address"
            },
            {
              "internalType": "uint256",
              "name": "lastTurnTimestamp",
              "type": "uint256"
            }
          ],
          "internalType": "struct TheThirdLaw.Game",
          "name": "",
          "type": "tuple"
        }
      ],
      "stateMutability": "view",
      "type": "function"
    },
    {
      "inputs": [
        {
          "internalType": "address",
          "name": "_playerAddress",
          "type": "address"
        }
      ],
      "name": "getGamesForPlayer",
      "outputs": [
        {
          "components": [
            {
              "internalType": "uint256",
              "name": "id",
              "type": "uint256"
            },
            {
              "internalType": "address",
              "name": "player1Address",
              "type": "address"
            },
            {
              "internalType": "address",
              "name": "player2Address",
              "type": "address"
            },
            {
              "components": [
                {
                  "internalType": "address",
                  "name": "ownerAddress",
                  "type": "address"
                },
                {
                  "components": [
                    {
                      "internalType": "int256",
                      "name": "row",
                      "type": "int256"
                    },
                    {
                      "internalType": "int256",
                      "name": "col",
                      "type": "int256"
                    }
                  ],
                  "internalType": "struct TheThirdLaw.Position",
                  "name": "position",
                  "type": "tuple"
                },
                {
                  "components": [
                    {
                      "internalType": "int256",
                      "name": "row",
                      "type": "int256"
                    },
                    {
                      "internalType": "int256",
                      "name": "col",
                      "type": "int256"
                    }
                  ],
                  "internalType": "struct TheThirdLaw.Velocity",
                  "name": "velocity",
                  "type": "tuple"
                },
                {
                  "internalType": "uint256",
                  "name": "remainingTorpedoes",
                  "type": "uint256"
                },
                {
                  "internalType": "uint256",
                  "name": "remainingMines",
                  "type": "uint256"
                },
                {
                  "components": [
                    {
                      "components": [
                        {
                          "internalType": "int256",
                          "name": "row",
                          "type": "int256"
                        },
                        {
                          "internalType": "int256",
                          "name": "col",
                          "type": "int256"
                        }
                      ],
                      "internalType": "struct TheThirdLaw.Position",
                      "name": "position",
                      "type": "tuple"
                    },
                    {
                      "components": [
                        {
                          "internalType": "int256",
                          "name": "row",
                          "type": "int256"
                        },
                        {
                          "internalType": "int256",
                          "name": "col",
                          "type": "int256"
                        }
                      ],
                      "internalType": "struct TheThirdLaw.Velocity",
                      "name": "velocity",
                      "type": "tuple"
                    },
                    {
                      "internalType": "uint256",
                      "name": "remainingFuel",
                      "type": "uint256"
                    }
                  ],
                  "internalType": "struct TheThirdLaw.Torpedo[]",
                  "name": "torpedoes",
                  "type": "tuple[]"
                },
                {
                  "components": [
                    {
                      "components": [
                        {
                          "internalType": "int256",
                          "name": "row",
                          "type": "int256"
                        },
                        {
                          "internalType": "int256",
                          "name": "col",
                          "type": "int256"
                        }
                      ],
                      "internalType": "struct TheThirdLaw.Position",
                      "name": "position",
                      "type": "tuple"
                    }
                  ],
                  "internalType": "struct TheThirdLaw.Mine[]",
                  "name": "mines",
                  "type": "tuple[]"
                }
              ],
              "internalType": "struct TheThirdLaw.Ship",
              "name": "player1Ship",
              "type": "tuple"
            },
            {
              "components": [
                {
                  "internalType": "address",
                  "name": "ownerAddress",
                  "type": "address"
                },
                {
                  "components": [
                    {
                      "internalType": "int256",
                      "name": "row",
                      "type": "int256"
                    },
                    {
                      "internalType": "int256",
                      "name": "col",
                      "type": "int256"
                    }
                  ],
                  "internalType": "struct TheThirdLaw.Position",
                  "name": "position",
                  "type": "tuple"
                },
                {
                  "components": [
                    {
                      "internalType": "int256",
                      "name": "row",
                      "type": "int256"
                    },
                    {
                      "internalType": "int256",
                      "name": "col",
                      "type": "int256"
                    }
                  ],
                  "internalType": "struct TheThirdLaw.Velocity",
                  "name": "velocity",
                  "type": "tuple"
                },
                {
                  "internalType": "uint256",
                  "name": "remainingTorpedoes",
                  "type": "uint256"
                },
                {
                  "internalType": "uint256",
                  "name": "remainingMines",
                  "type": "uint256"
                },
                {
                  "components": [
                    {
                      "components": [
                        {
                          "internalType": "int256",
                          "name": "row",
                          "type": "int256"
                        },
                        {
                          "internalType": "int256",
                          "name": "col",
                          "type": "int256"
                        }
                      ],
                      "internalType": "struct TheThirdLaw.Position",
                      "name": "position",
                      "type": "tuple"
                    },
                    {
                      "components": [
                        {
                          "internalType": "int256",
                          "name": "row",
                          "type": "int256"
                        },
                        {
                          "internalType": "int256",
                          "name": "col",
                          "type": "int256"
                        }
                      ],
                      "internalType": "struct TheThirdLaw.Velocity",
                      "name": "velocity",
                      "type": "tuple"
                    },
                    {
                      "internalType": "uint256",
                      "name": "remainingFuel",
                      "type": "uint256"
                    }
                  ],
                  "internalType": "struct TheThirdLaw.Torpedo[]",
                  "name": "torpedoes",
                  "type": "tuple[]"
                },
                {
                  "components": [
                    {
                      "components": [
                        {
                          "internalType": "int256",
                          "name": "row",
                          "type": "int256"
                        },
                        {
                          "internalType": "int256",
                          "name": "col",
                          "type": "int256"
                        }
                      ],
                      "internalType": "struct TheThirdLaw.Position",
                      "name": "position",
                      "type": "tuple"
                    }
                  ],
                  "internalType": "struct TheThirdLaw.Mine[]",
                  "name": "mines",
                  "type": "tuple[]"
                }
              ],
              "internalType": "struct TheThirdLaw.Ship",
              "name": "player2Ship",
              "type": "tuple"
            },
            {
              "internalType": "enum Status",
              "name": "status",
              "type": "uint8"
            },
            {
              "internalType": "uint256",
              "name": "value",
              "type": "uint256"
            },
            {
              "internalType": "address",
              "name": "currentPlayer",
              "type": "address"
            },
            {
              "internalType": "uint256",
              "name": "lastTurnTimestamp",
              "type": "uint256"
            }
          ],
          "internalType": "struct TheThirdLaw.Game[]",
          "name": "",
          "type": "tuple[]"
        }
      ],
      "stateMutability": "view",
      "type": "function"
    },
    {
      "inputs": [
        {
          "internalType": "address",
          "name": "_playerAddress",
          "type": "address"
        }
      ],
      "name": "getPlayer",
      "outputs": [
        {
          "components": [
            {
              "internalType": "address",
              "name": "ownerAddress",
              "type": "address"
            },
            {
              "internalType": "uint256[]",
              "name": "gameIds",
              "type": "uint256[]"
            },
            {
              "internalType": "uint256[]",
              "name": "inviteIds",
              "type": "uint256[]"
            },
            {
              "internalType": "uint256",
              "name": "victories",
              "type": "uint256"
            },
            {
              "internalType": "uint256",
              "name": "defaultVictories",
              "type": "uint256"
            },
            {
              "internalType": "uint256",
              "name": "defaultLosses",
              "type": "uint256"
            },
            {
              "internalType": "uint256",
              "name": "draws",
              "type": "uint256"
            },
            {
              "internalType": "uint256",
              "name": "losses",
              "type": "uint256"
            },
            {
              "internalType": "uint256",
              "name": "eloRating",
              "type": "uint256"
            },
            {
              "internalType": "uint256",
              "name": "currentShipId",
              "type": "uint256"
            }
          ],
          "internalType": "struct TheThirdLaw.Player",
          "name": "",
          "type": "tuple"
        }
      ],
      "stateMutability": "view",
      "type": "function"
    },
    {
      "inputs": [
        {
          "internalType": "address",
          "name": "_player2Address",
          "type": "address"
        }
      ],
      "name": "inviteToGame",
      "outputs": [],
      "stateMutability": "payable",
      "type": "function"
    },
    {
      "inputs": [],
      "name": "maxMines",
      "outputs": [
        {
          "internalType": "uint256",
          "name": "",
          "type": "uint256"
        }
      ],
      "stateMutability": "view",
      "type": "function"
    },
    {
      "inputs": [],
      "name": "maxTorpedoes",
      "outputs": [
        {
          "internalType": "uint256",
          "name": "",
          "type": "uint256"
        }
      ],
      "stateMutability": "view",
      "type": "function"
    },
    {
      "inputs": [],
      "name": "mineRange",
      "outputs": [
        {
          "internalType": "uint256",
          "name": "",
          "type": "uint256"
        }
      ],
      "stateMutability": "view",
      "type": "function"
    },
    {
      "inputs": [],
      "name": "owner",
      "outputs": [
        {
          "internalType": "address",
          "name": "",
          "type": "address"
        }
      ],
      "stateMutability": "view",
      "type": "function"
    },
    {
      "inputs": [],
      "name": "pause",
      "outputs": [],
      "stateMutability": "nonpayable",
      "type": "function"
    },
    {
      "inputs": [
        {
          "internalType": "address",
          "name": "",
          "type": "address"
        }
      ],
      "name": "players",
      "outputs": [
        {
          "internalType": "address",
          "name": "ownerAddress",
          "type": "address"
        },
        {
          "internalType": "uint256",
          "name": "victories",
          "type": "uint256"
        },
        {
          "internalType": "uint256",
          "name": "defaultVictories",
          "type": "uint256"
        },
        {
          "internalType": "uint256",
          "name": "defaultLosses",
          "type": "uint256"
        },
        {
          "internalType": "uint256",
          "name": "draws",
          "type": "uint256"
        },
        {
          "internalType": "uint256",
          "name": "losses",
          "type": "uint256"
        },
        {
          "internalType": "uint256",
          "name": "eloRating",
          "type": "uint256"
        },
        {
          "internalType": "uint256",
          "name": "currentShipId",
          "type": "uint256"
        }
      ],
      "stateMutability": "view",
      "type": "function"
    },
    {
      "inputs": [
        {
          "internalType": "uint256",
          "name": "_gameId",
          "type": "uint256"
        }
      ],
      "name": "rejectInvite",
      "outputs": [],
      "stateMutability": "nonpayable",
      "type": "function"
    },
    {
      "inputs": [],
      "name": "renounceOwnership",
      "outputs": [],
      "stateMutability": "nonpayable",
      "type": "function"
    },
    {
      "inputs": [
        {
          "internalType": "uint256",
          "name": "_feePercent",
          "type": "uint256"
        }
      ],
      "name": "setFeePercent",
      "outputs": [],
      "stateMutability": "nonpayable",
      "type": "function"
    },
    {
      "inputs": [
        {
          "internalType": "uint256",
          "name": "_gameCost",
          "type": "uint256"
        }
      ],
      "name": "setGameCost",
      "outputs": [],
      "stateMutability": "nonpayable",
      "type": "function"
    },
    {
      "inputs": [
        {
          "internalType": "uint256",
          "name": "_mineRange",
          "type": "uint256"
        }
      ],
      "name": "setMineRange",
      "outputs": [],
      "stateMutability": "nonpayable",
      "type": "function"
    },
    {
      "inputs": [
        {
          "internalType": "uint256",
          "name": "_maxMines",
          "type": "uint256"
        }
      ],
      "name": "setNumberMines",
      "outputs": [],
      "stateMutability": "nonpayable",
      "type": "function"
    },
    {
      "inputs": [
        {
          "internalType": "uint256",
          "name": "_maxTorpedoes",
          "type": "uint256"
        }
      ],
      "name": "setNumberTorpedoes",
      "outputs": [],
      "stateMutability": "nonpayable",
      "type": "function"
    },
    {
      "inputs": [
        {
          "internalType": "int256",
          "name": "_torpedoAccel",
          "type": "int256"
        }
      ],
      "name": "setTorpedoAccel",
      "outputs": [],
      "stateMutability": "nonpayable",
      "type": "function"
    },
    {
      "inputs": [
        {
          "internalType": "uint256",
          "name": "_torpedoFuel",
          "type": "uint256"
        }
      ],
      "name": "setTorpedoFuel",
      "outputs": [],
      "stateMutability": "nonpayable",
      "type": "function"
    },
    {
      "inputs": [
        {
          "internalType": "uint256",
          "name": "_gameId",
          "type": "uint256"
        },
        {
          "internalType": "enum LeftOrRight",
          "name": "_leftOrRight",
          "type": "uint8"
        },
        {
          "internalType": "enum UpOrDown",
          "name": "_upOrDown",
          "type": "uint8"
        },
        {
          "internalType": "enum Action",
          "name": "_action",
          "type": "uint8"
        }
      ],
      "name": "takeTurn",
      "outputs": [],
      "stateMutability": "nonpayable",
      "type": "function"
    },
    {
      "inputs": [],
      "name": "torpedoAccel",
      "outputs": [
        {
          "internalType": "int256",
          "name": "",
          "type": "int256"
        }
      ],
      "stateMutability": "view",
      "type": "function"
    },
    {
      "inputs": [],
      "name": "torpedoFuel",
      "outputs": [
        {
          "internalType": "uint256",
          "name": "",
          "type": "uint256"
        }
      ],
      "stateMutability": "view",
      "type": "function"
    },
    {
      "inputs": [],
      "name": "torpedoRange",
      "outputs": [
        {
          "internalType": "int256",
          "name": "",
          "type": "int256"
        }
      ],
      "stateMutability": "view",
      "type": "function"
    },
    {
      "inputs": [
        {
          "internalType": "address",
          "name": "newOwner",
          "type": "address"
        }
      ],
      "name": "transferOwnership",
      "outputs": [],
      "stateMutability": "nonpayable",
      "type": "function"
    },
    {
      "inputs": [],
      "name": "turnTimeout",
      "outputs": [
        {
          "internalType": "uint256",
          "name": "",
          "type": "uint256"
        }
      ],
      "stateMutability": "view",
      "type": "function"
    },
    {
      "inputs": [],
      "name": "withdrawFee",
      "outputs": [],
      "stateMutability": "nonpayable",
      "type": "function"
    }
  ],
  "transactionHash": "0x03b71a1243a85be58a9f2fb8fdfcf6ffc810a4fdd9216de73d9cae74197e58e4",
  "args": [],
  "numDeployments": 12,
  "solcInputHash": "d0c03cb2fc0488f0daadb32de861615b",
  "bytecode": "0x608060405266038d7ea4c68000600455600a600555600060065560056007556005600855600a6009556002600a556001600b556001600c55620493e0600d556001600e60006101000a81548160ff0219169083151502179055506000600f553480156200006b57600080fd5b50620000773362000089565b601180546001018155600052620000d9565b600080546001600160a01b038381166001600160a01b0319831681178455604051919092169283917f8be0079c531659141344cd1fd0a4f28419497f9722a3daafe3b4186f6b6457e09190a35050565b61429c80620000e96000396000f3fe60806040526004361061021a5760003560e01c80637f17b79d11610123578063c15e7e30116100ab578063d0399bb81161006f578063d0399bb8146105f7578063e2eb41ff14610617578063e941fa78146106c4578063f2fde38b146106d9578063f9d86073146106f957600080fd5b8063c15e7e3014610579578063c1699a9814610599578063c2e80b47146105a1578063cab896dc146105c1578063cd607b62146105d757600080fd5b80638da5cb5b116100f25780638da5cb5b146104de57806391c8767114610506578063a2f77bcc14610526578063b69667fe14610553578063bf8e91761461056657600080fd5b80637f17b79d1461045e5780637fd6f15c1461047e5780638456cb591461049457806384d2957e146104a957600080fd5b806356ce1175116101a657806367c5f6e51161017557806367c5f6e5146103dd5780636cc4b0b7146103fd5780636d64aa0614610413578063715018a6146104295780637ce3489b1461043e57600080fd5b806356ce1175146103645780635c12cd4b1461037a57806360b71d4e146103a757806364616253146103bd57600080fd5b806341b02d71116101ed57806341b02d71146102d457806346b9bfe4146102ea5780634f764e351461030c578063526aef4c1461032c578063544722af1461034e57600080fd5b806302fb0c5e1461021f5780630aa1b2661461024e578063117a5b901461027b5780633c6e43a9146102b0575b600080fd5b34801561022b57600080fd5b50600e546102399060ff1681565b60405190151581526020015b60405180910390f35b34801561025a57600080fd5b5061026e610269366004613b4c565b61070f565b6040516102459190613dbb565b34801561028757600080fd5b5061029b610296366004613e1d565b610bdf565b60405161024599989796959493929190613e36565b3480156102bc57600080fd5b506102c660075481565b604051908152602001610245565b3480156102e057600080fd5b506102c6600b5481565b3480156102f657600080fd5b5061030a610305366004613e1d565b610f3c565b005b34801561031857600080fd5b5061030a610327366004613e1d565b610f49565b34801561033857600080fd5b50610341610f56565b6040516102459190613eb2565b34801561035a57600080fd5b506102c6600a5481565b34801561037057600080fd5b506102c660085481565b34801561038657600080fd5b5061039a610395366004613b4c565b611040565b6040516102459190613f3a565b3480156103b357600080fd5b506102c660065481565b3480156103c957600080fd5b5061030a6103d8366004613e1d565b6111c7565b3480156103e957600080fd5b5061030a6103f8366004613e1d565b6112b1565b34801561040957600080fd5b506102c6600d5481565b34801561041f57600080fd5b506102c6600c5481565b34801561043557600080fd5b5061030a6112be565b34801561044a57600080fd5b5061030a610459366004613e1d565b6112d2565b34801561046a57600080fd5b5061030a610479366004613e1d565b6112df565b34801561048a57600080fd5b506102c660055481565b3480156104a057600080fd5b5061030a6112ec565b3480156104b557600080fd5b506104c96104c4366004613feb565b611300565b60408051928352602083019190915201610245565b3480156104ea57600080fd5b506000546040516001600160a01b039091168152602001610245565b34801561051257600080fd5b5061030a610521366004613e1d565b611450565b34801561053257600080fd5b50610546610541366004613e1d565b611561565b6040516102459190614028565b61030a610561366004613b4c565b61191f565b61030a610574366004613e1d565b611b30565b34801561058557600080fd5b5061030a610594366004614048565b611c56565b61030a611cf5565b3480156105ad57600080fd5b5061030a6105bc366004613e1d565b611fce565b3480156105cd57600080fd5b506102c660045481565b3480156105e357600080fd5b5061030a6105f2366004613e1d565b611fdb565b34801561060357600080fd5b5061030a610612366004613e1d565b611fe8565b34801561062357600080fd5b5061067f610632366004613b4c565b601060205260009081526040902080546003820154600483015460058401546006850154600786015460088701546009909701546001600160a01b03909616969495939492939192909188565b604080516001600160a01b0390991689526020890197909752958701949094526060860192909252608085015260a084015260c083015260e082015261010001610245565b3480156106d057600080fd5b5061030a612140565b3480156106e557600080fd5b5061030a6106f4366004613b4c565b61217e565b34801561070557600080fd5b506102c660095481565b6001600160a01b038116600090815260106020908152604080832060010180548251818502810185019093528083526060949383018282801561077157602002820191906000526020600020905b81548152602001906001019080831161075d575b505050505090506000815167ffffffffffffffff8111156107945761079461409b565b6040519080825280602002602001820160405280156107cd57816020015b6107ba613a01565b8152602001906001900390816107b25790505b50905060005b8251811015610bd75760118382815181106107f0576107f06140b1565b602002602001015181548110610808576108086140b1565b60009182526020808320604080516101208101825260199094029091018054845260018101546001600160a01b03908116858501526002820154811685840152825160e0810184526003830180549092168152835180850185526004840154815260058401548187015281860152835180850185526006840154815260078401548187015281850152600883015460608281019190915260098401546080830152600a8401805486518189028101890190975280875297989497918901969295939460a08701949391929184015b828210156109465760008481526020908190206040805160a0810182526005860290920180546060840190815260018083015460808601529084528251808401845260028301548152600383015481870152848601526004909101549183019190915290835290920191016108d6565b50505050815260200160088201805480602002602001604051908101604052809291908181526020016000905b828210156109bc57600084815260209081902060408051606081018252600286029092018054838501908152600191820154928401929092529082529083529092019101610973565b5050509152505081526040805160e081018252600c840180546001600160a01b0316825282518084018452600d8601548152600e8601546020828101919091528381019190915283518085018552600f8701548152601087015481830152838501526011860154606084015260128601546080840152601386018054855181840281018401909652808652958201959394929360a08601939260009084015b82821015610acb5760008481526020908190206040805160a081018252600586029092018054606084019081526001808301546080860152908452825180840184526002830154815260038301548187015284860152600490910154918301919091529083529092019101610a5b565b50505050815260200160088201805480602002602001604051908101604052809291908181526020016000905b82821015610b4157600084815260209081902060408051606081018252600286029092018054838501908152600191820154928401929092529082529083529092019101610af8565b505050915250508152601582015460209091019060ff166007811115610b6957610b69613cc4565b6007811115610b7a57610b7a613cc4565b81526016820154602082015260178201546001600160a01b031660408201526018909101546060909101528251839083908110610bb957610bb96140b1565b60200260200101819052508080610bcf906140dd565b9150506107d3565b509392505050565b60118181548110610bef57600080fd5b6000918252602080832060199092029091018054600182015460028301546040805160e0810182526003860180546001600160a01b03908116835283518085018552600489015481526005890154818b0152838a015283518085018552600689015481526007890154818b0152838501526008880154606084015260098801546080840152600a880180548551818c0281018c01909652808652979b50958116999416979195909460a0870194909284015b82821015610d115760008481526020908190206040805160a081018252600586029092018054606084019081526001808301546080860152908452825180840184526002830154815260038301548187015284860152600490910154918301919091529083529092019101610ca1565b50505050815260200160088201805480602002602001604051908101604052809291908181526020016000905b82821015610d8757600084815260209081902060408051606081018252600286029092018054838501908152600191820154928401929092529082529083529092019101610d3e565b505050915250506040805160e081018252600c840180546001600160a01b0316825282518084018452600d8601548152600e8601546020828101919091528084019190915283518085018552600f87015481526010870154818301528385015260118601546060840152601286015460808401526013860180548551818402810184019096528086529596959394929360a08601939260009084015b82821015610e935760008481526020908190206040805160a081018252600586029092018054606084019081526001808301546080860152908452825180840184526002830154815260038301548187015284860152600490910154918301919091529083529092019101610e23565b50505050815260200160088201805480602002602001604051908101604052809291908181526020016000905b82821015610f0957600084815260209081902060408051606081018252600286029092018054838501908152600191820154928401929092529082529083529092019101610ec0565b50505091525050601582015460168301546017840154601890940154929360ff9092169290916001600160a01b03169089565b610f446121f4565b600b55565b610f516121f4565b600a55565b60606000610f64600161224e565b67ffffffffffffffff811115610f7c57610f7c61409b565b604051908082528060200260200182016040528015610fc157816020015b6040805180820190915260008082526020820152815260200190600190039081610f9a5790505b50905060005b610fd1600161224e565b81101561103a57600080610fe660018461225f565b915091506040518060400160405280836001600160a01b031681526020018281525084848151811061101a5761101a6140b1565b602002602001018190525050508080611032906140dd565b915050610fc7565b50919050565b61109f60405180610140016040528060006001600160a01b031681526020016060815260200160608152602001600081526020016000815260200160008152602001600081526020016000815260200160008152602001600081525090565b6001600160a01b038083166000908152601060209081526040918290208251610140810184528154909416845260018101805484518185028101850190955280855291938584019390929083018282801561111957602002820191906000526020600020905b815481526020019060010190808311611105575b505050505081526020016002820180548060200260200160405190810160405280929190818152602001828054801561117157602002820191906000526020600020905b81548152602001906001019080831161115d575b505050505081526020016003820154815260200160048201548152602001600582015481526020016006820154815260200160078201548152602001600882015481526020016009820154815250509050919050565b6000601182815481106111dc576111dc6140b1565b6000918252602090912060199091020190506006601582015460ff16600781111561120957611209613cc4565b146112265760405162a3097160e01b815260040160405180910390fd5b60018101546001600160a01b03163314801590611250575060028101546001600160a01b03163314155b1561126e57604051631794a8af60e11b815260040160405180910390fd5b600d54601882015461128090426140f6565b101561129f57604051635ada9a9960e01b815260040160405180910390fd5b6112ad82600080600061227b565b5050565b6112b96121f4565b600755565b6112c66121f4565b6112d06000612618565b565b6112da6121f4565b600555565b6112e76121f4565b600455565b6112f46121f4565b600e805460ff19169055565b6000808061133c6103e861132b600a61019061131c8b8b614109565b6113269190614146565b612668565b611337906103e8614174565b612694565b9050600061134c826103e8614109565b90506000600286600781111561136457611364613cc4565b14806113815750600486600781111561137f5761137f613cc4565b145b1561138f57506103e86113b5565b60058660078111156113a3576113a3613cc4565b036113b157506101f46113b5565b5060005b60006113c3826103e8614109565b905060006103e86113d48685614109565b6113df90602061419c565b6113e99190614146565b6113f3908b614174565b905060006103e86114048685614109565b61140f90602061419c565b6114199190614146565b611423908b614174565b9050600082121561143357600091505b6000811215611440575060005b909a909950975050505050505050565b336001600160a01b03166011828154811061146d5761146d6140b1565b60009182526020909120600260199092020101546001600160a01b0316146114b05760405163da271c6960e01b8152600481018290526024015b60405180910390fd5b601181815481106114c3576114c36140b1565b906000526020600020906019020160160154600660008282546114e691906141cc565b92505081905550600060118281548110611502576115026140b1565b90600052602060002090601902016016018190555060076011828154811061152c5761152c6140b1565b60009182526020909120601560199092020101805460ff1916600183600781111561155957611559613cc4565b021790555050565b611569613a01565b6011828154811061157c5761157c6140b1565b60009182526020808320604080516101208101825260199094029091018054845260018101546001600160a01b03908116858501526002820154811685840152825160e0810184526003830180549092168152835180850185526004840154815260058401548187015281860152835180850185526006840154815260078401548187015281850152600883015460608281019190915260098401546080830152600a8401805486518189028101890190975280875297989497918901969295939460a08701949391929184015b828210156116ba5760008481526020908190206040805160a08101825260058602909201805460608401908152600180830154608086015290845282518084018452600283015481526003830154818701528486015260049091015491830191909152908352909201910161164a565b50505050815260200160088201805480602002602001604051908101604052809291908181526020016000905b82821015611730576000848152602090819020604080516060810182526002860290920180548385019081526001918201549284019290925290825290835290920191016116e7565b5050509152505081526040805160e081018252600c840180546001600160a01b0316825282518084018452600d8601548152600e8601546020828101919091528381019190915283518085018552600f8701548152601087015481830152838501526011860154606084015260128601546080840152601386018054855181840281018401909652808652958201959394929360a08601939260009084015b8282101561183f5760008481526020908190206040805160a0810182526005860290920180546060840190815260018083015460808601529084528251808401845260028301548152600383015481870152848601526004909101549183019190915290835290920191016117cf565b50505050815260200160088201805480602002602001604051908101604052809291908181526020016000905b828210156118b55760008481526020908190206040805160608101825260028602909201805483850190815260019182015492840192909252908252908352909201910161186c565b505050915250508152601582015460209091019060ff1660078111156118dd576118dd613cc4565b60078111156118ee576118ee613cc4565b81526016820154602082015260178201546001600160a01b0316604082015260189091015460609091015292915050565b600e5460ff166119425760405163ab35696f60e01b815260040160405180910390fd5b600454341461196457604051631036b5ad60e31b815260040160405180910390fd5b336000908152601060205260409020546001600160a01b031661198a5761198a336126b4565b6001600160a01b03818116600090815260106020526040902054166119b2576119b2816126b4565b6011805460018101808355600083905290918291829081106119d6576119d66140b1565b90600052602060002090601902016000018190555033601182815481106119ff576119ff6140b1565b906000526020600020906019020160010160006101000a8154816001600160a01b0302191690836001600160a01b031602179055508160118281548110611a4857611a486140b1565b906000526020600020906019020160020160006101000a8154816001600160a01b0302191690836001600160a01b031602179055503460118281548110611a9157611a916140b1565b600091825260208083206016601990930201919091019290925533808252601083526040808320600190810180548083018255908552858520018690556001600160a01b038716808552828520808301805480850182559087528787200188905560020180549283018155855294842001859055518493927f64104361ad73841dc20b552e4700f3f464329596092336a5e3c02d8862623b6691a45050565b6004543414611b5257604051631036b5ad60e31b815260040160405180910390fd5b336001600160a01b031660118281548110611b6f57611b6f6140b1565b60009182526020909120600260199092020101546001600160a01b031614611bad5760405163da271c6960e01b8152600481018290526024016114a7565b3460118281548110611bc157611bc16140b1565b90600052602060002090601902016016016000828254611be191906141cc565b90915550611bf090508161280a565b80336001600160a01b031660118381548110611c0e57611c0e6140b1565b600091825260208220600160199092020101546040516001600160a01b03909116917fbfd436d24d21060f278a8b528282bc3a5bca811b5e108e411c10ca75d65f646791a450565b600060118581548110611c6b57611c6b6140b1565b6000918252602090912060199091020190506006601582015460ff166007811115611c9857611c98613cc4565b14611cb55760405162a3097160e01b815260040160405180910390fd5b60178101546001600160a01b03163314611ce257604051631cc191eb60e31b815260040160405180910390fd5b611cee8585858561227b565b5050505050565b600e5460ff16611d185760405163ab35696f60e01b815260040160405180910390fd5b6004543414611d3a57604051631036b5ad60e31b815260040160405180910390fd5b336000908152601060205260409020546001600160a01b0316611d6057611d60336126b4565b600f54600003611e8c5760118054600f81905560018101808355600083905290919082908110611d9257611d926140b1565b906000526020600020906019020160000181905550336011600f5481548110611dbd57611dbd6140b1565b906000526020600020906019020160010160006101000a8154816001600160a01b0302191690836001600160a01b03160217905550346011600f5481548110611e0857611e086140b1565b600091825260208083206016601990930201919091019290925533808252601083526040808320600f8054600180840180548083018255908852888820019190915581546002909301805491820181558652958520909501559254925190917f9aa587534c85aa2ba48b98ff99fee0cc8eb86a8965d3f542170059a691760a9b91a3565b336011600f5481548110611ea257611ea26140b1565b906000526020600020906019020160020160006101000a8154816001600160a01b0302191690836001600160a01b03160217905550346011600f5481548110611eed57611eed6140b1565b90600052602060002090601902016016016000828254611f0d91906141cc565b90915550503360009081526010602090815260408220600f8054600180840180548083018255908752858720019190915581546002909301805491820181558552929093209091015554611f609061280a565b600f54336001600160a01b03166011600f5481548110611f8257611f826140b1565b600091825260208220600160199092020101546040516001600160a01b03909116917fb557d97ea9c1990e22ef70ef429658b7ee91548555170ee2e47762cf6382502291a46000600f55565b611fd66121f4565b600855565b611fe36121f4565b600955565b336001600160a01b031660118281548110612005576120056140b1565b60009182526020909120600160199092020101546001600160a01b0316148015906120685750336001600160a01b031660118281548110612048576120486140b1565b60009182526020909120600260199092020101546001600160a01b031614155b1561208657604051631794a8af60e11b815260040160405180910390fd5b60066011828154811061209b5761209b6140b1565b600091825260209091206015601990920201015460ff1660078111156120c3576120c3613cc4565b146120e05760405162a3097160e01b815260040160405180910390fd5b600d54601182815481106120f6576120f66140b1565b9060005260206000209060190201601801544261211391906140f6565b101561213257604051635ada9a9960e01b815260040160405180910390fd5b61213d816005612c75565b50565b6121486121f4565b600654604051339180156108fc02916000818181858888f19350505050158015612176573d6000803e3d6000fd5b506000600655565b6121866121f4565b6001600160a01b0381166121eb5760405162461bcd60e51b815260206004820152602660248201527f4f776e61626c653a206e6577206f776e657220697320746865207a65726f206160448201526564647265737360d01b60648201526084016114a7565b61213d81612618565b6000546001600160a01b031633146112d05760405162461bcd60e51b815260206004820181905260248201527f4f776e61626c653a2063616c6c6572206973206e6f7420746865206f776e657260448201526064016114a7565b600061225982613293565b92915050565b600080808061226e868661329e565b9097909650945050505050565b600060118581548110612290576122906140b1565b600091825260208220600160199092020190810154601782015491935082916001600160a01b039182169116036122d057505060038101600c82016122db565b5050600c8101600382015b60018660028111156122ef576122ef613cc4565b0361231757600182600301600101600082825461230c9190614109565b9091555061234e9050565b600286600281111561232b5761232b613cc4565b0361234e5760018260030160010160008282546123489190614174565b90915550505b600185600281111561236257612362613cc4565b0361238a57600182600301600001600082825461237f9190614109565b909155506123c19050565b600285600281111561239e5761239e613cc4565b036123c15760018260030160000160008282546123bb9190614174565b90915550505b60018460028111156123d5576123d5613cc4565b036124b75781600501546000036123ff5760405163bab1d9e760e01b815260040160405180910390fd5b600182600501600082825461241491906140f6565b90915550506040805160a08101825260018085015460608301908152600280870154608085015290835283518085018552600380880154825260048089015460208481019190915280870193845260095497870197885260078a0180548088018255600091825290829020975180516005909202909801908155968101519587019590955591518051938601939093559190920151908301559151910155612562565b60028460028111156124cb576124cb613cc4565b036125625781600601546000036124f557604051630adb358f60e11b815260040160405180910390fd5b600182600601600082825461250a91906140f6565b9091555050604080516060810182526001808501546020808401918252600280880154958501959095529083526008860180548084018255600091825290829020935180519190950290930192835592909201519101555b61256b826132c9565b6125758383613308565b61257f838361336d565b61258d8383836008016133e9565b61259b8382846007016134b6565b426018840155600183015460178401546001600160a01b039182169116036125e85760028301546017840180546001600160a01b0319166001600160a01b0390921691909117905561260f565b60018301546017840180546001600160a01b0319166001600160a01b039092169190911790555b50505050505050565b600080546001600160a01b038381166001600160a01b0319831681178455604051919092169283917f8be0079c531659141344cd1fd0a4f28419497f9722a3daafe3b4186f6b6457e09190a35050565b60006001815b83811215610bd757612680858361419c565b91508061268c816141df565b91505061266e565b6000816126a3846103e861419c565b6126ad9190614146565b9392505050565b6001600160a01b0381811660009081526010602052604090205416156126ed57604051630ea075bf60e21b815260040160405180910390fd5b60408051610140810182526001600160a01b0383811680835283516000808252602080830187528086019283528651828152808201885286880152606086018290526080860182905260a0860182905260c0860182905260e086018290526104b061010087015261012086018290529281526010835294909420835181546001600160a01b031916931692909217825592518051929391926127959260018501920190613a74565b50604082015180516127b1916002840191602090910190613a74565b50606082015160038201556080820151600482015560a0820151600582015560c0820151600682015560e082015160078201556101008201516008820155610120909101516009909101556112ad6001826104b06138e2565b60006011828154811061281f5761281f6140b1565b90600052602060002090601902016003019050600060118381548110612847576128476140b1565b600091825260208220600c6019909202010191506128666002436141f7565b1561287357600019612876565b60015b90506011848154811061288b5761288b6140b1565b600091825260209091206001601990920201015483546001600160a01b0319166001600160a01b0390911617835560408051808201909152806128cf83600f61419c565b81526020016128de600f61420b565b905280516001850155602090810151600280860191909155604080518082019091526000808252920182905260038501829055600485018290556007546005860155600854600686015561293290426141f7565b1561293f57600019612942565b60015b905060118581548110612957576129576140b1565b600091825260209091206002601990920201015483546001600160a01b0319166001600160a01b03909116178355604080518082019091528061299b83600f61419c565b8152600f60209182015281516001860155908101516002808601919091556040805180820190915260008082529201829052600385018290556004850191909155600754600585015560085460068501556129f69044614227565b600003612a825760118581548110612a1057612a106140b1565b906000526020600020906019020160010160009054906101000a90046001600160a01b031660118681548110612a4857612a486140b1565b906000526020600020906019020160170160006101000a8154816001600160a01b0302191690836001600160a01b03160217905550612b03565b60118581548110612a9557612a956140b1565b906000526020600020906019020160020160009054906101000a90046001600160a01b031660118681548110612acd57612acd6140b1565b906000526020600020906019020160170160006101000a8154816001600160a01b0302191690836001600160a01b031602179055505b600660118681548110612b1857612b186140b1565b60009182526020909120601560199092020101805460ff19166001836007811115612b4557612b45613cc4565b02179055506000606460055460118881548110612b6457612b646140b1565b906000526020600020906019020160160154612b80919061423b565b612b8a9190614252565b90508060066000828254612b9e91906141cc565b925050819055508060118781548110612bb957612bb96140b1565b90600052602060002090601902016016016000828254612bd991906140f6565b925050819055508560118781548110612bf457612bf46140b1565b6000918252602090912060026019909202010154601180546001600160a01b039092169189908110612c2857612c286140b1565b600091825260208220600160199092020101546040516001600160a01b03909116917fee0dca10a9957dad74da3fe318a3ccc561c46d96be0ab0b66e7aff32aab94cf391a4505050505050565b600060118381548110612c8a57612c8a6140b1565b90600052602060002090601902019050818160150160006101000a81548160ff02191690836007811115612cc057612cc0613cc4565b02179055506017810180546001600160a01b03191690556001826007811115612ceb57612ceb613cc4565b03612daa5760028101546001600160a01b03166000908152601060205260408120600301805460019290612d209084906141cc565b90915550506001818101546001600160a01b031660009081526010602052604081206007018054909190612d559084906141cc565b9091555050601681018054600091829055600283015460405191926001600160a01b039091169183156108fc0291849190818181858888f19350505050158015612da3573d6000803e3d6000fd5b505061319c565b6002826007811115612dbe57612dbe613cc4565b03612e84576001818101546001600160a01b031660009081526010602052604081206003018054909190612df39084906141cc565b909155505060028101546001600160a01b03166000908152601060205260408120600701805460019290612e289084906141cc565b9091555050601681018054600091829055600183015460405191926001600160a01b039091169183156108fc0291849190818181858888f19350505050158015612e76573d6000803e3d6000fd5b50506000601682015561319c565b6003826007811115612e9857612e98613cc4565b03612f945760028101546001600160a01b03166000908152601060205260408120600401805460019290612ecd9084906141cc565b90915550506001818101546001600160a01b031660009081526010602052604081206005018054909190612f029084906141cc565b9091555050601681018054600091829055906064612f2183604b61423b565b612f2b9190614252565b60028401546040519192506001600160a01b03169082156108fc029083906000818181858888f19350505050158015612f68573d6000803e3d6000fd5b50612f7381836140f6565b91508160066000828254612f8791906141cc565b9091555061319c92505050565b6004826007811115612fa857612fa8613cc4565b03613078576001818101546001600160a01b031660009081526010602052604081206004018054909190612fdd9084906141cc565b909155505060028101546001600160a01b031660009081526010602052604081206005018054600192906130129084906141cc565b909155505060168101805460009182905590606461303183604b61423b565b61303b9190614252565b60018401546040519192506001600160a01b03169082156108fc029083906000818181858888f19350505050158015612f68573d6000803e3d6000fd5b600582600781111561308c5761308c613cc4565b0361319c576001818101546001600160a01b0316600090815260106020526040812060060180549091906130c19084906141cc565b909155505060028101546001600160a01b031660009081526010602052604081206006018054600192906130f69084906141cc565b909155505060168101805460009182905590613113600283614252565b60018401546040519192506001600160a01b03169082156108fc029083906000818181858888f19350505050158015613150573d6000803e3d6000fd5b5061315b81836140f6565b60028401546040519193506001600160a01b03169083156108fc029084906000818181858888f19350505050158015613198573d6000803e3d6000fd5b5050505b60018101546001600160a01b03908116600090815260106020526040808220600890810154600286015490941683529082200154909182916131df919086611300565b600180860180546001600160a01b03908116600090815260106020526040808220600890810188905560028b015484168352912001849055905493955091935061322c92909116846138e2565b506002830154613248906001906001600160a01b0316836138e2565b506002830154600184015460405187926001600160a01b039081169216907fd13e8f06e2982264b04d30acdae3d74f4241e1dde5c38af5f6a38820d14348f590600090a45050505050565b600061225982613900565b600080806132ac858561390a565b600081815260029690960160205260409095205494959350505050565b60038101546001820180546000906132e2908490614174565b90915550506004810154600282018054600090613300908490614174565b909155505050565b601461331a8260010160000154613916565b1380613335575060146133338260010160010154613916565b135b156112ad57600182015481546001600160a01b039182169116036133605781546112ad906003612c75565b81546112ad906004612c75565b600a6133b18260010160405180604001604052908160008201548152602001600182015481525050604051806040016040528060008152602001600081525061392d565b116112ad57600182015481546001600160a01b039182169116036133dc5781546112ad906001612c75565b81546112ad906002612c75565b60005b81548110156134b057600a546040805180820190915260018501548152600285015460208201528354613461919085908590811061342c5761342c6140b1565b90600052602060002090600202016000016040518060400160405290816000820154815260200160018201548152505061392d565b1161349e57600184015483546001600160a01b0391821691160361349157835461348c906001612c75565b61349e565b835461349e906002612c75565b806134a8816140dd565b9150506133ec565b50505050565b60005b81548110156134b0578181815481106134d4576134d46140b1565b906000526020600020906005020160040154600003156138d0576001828281548110613502576135026140b1565b9060005260206000209060050201600401600082825461352291906140f6565b92505081905550600082828154811061353d5761353d6140b1565b6000918252602090912060059091020154600185015461355d9190614109565b90506000838381548110613573576135736140b1565b600091825260209091206001600590920201015460028601546135969190614109565b905060008213156135e35760018484815481106135b5576135b56140b1565b906000526020600020906005020160020160000160008282546135d89190614174565b909155506136299050565b6000821215613629576001848481548110613600576136006140b1565b906000526020600020906005020160020160000160008282546136239190614109565b90915550505b6000811315613674576001848481548110613646576136466140b1565b906000526020600020906005020160020160010160008282546136699190614174565b909155506136ba9050565b60008112156136ba576001848481548110613691576136916140b1565b906000526020600020906005020160020160010160008282546136b49190614109565b90915550505b8383815481106136cc576136cc6140b1565b9060005260206000209060050201600201600001548484815481106136f3576136f36140b1565b906000526020600020906005020160000160000160008282546137169190614174565b9250508190555083838154811061372f5761372f6140b1565b906000526020600020906005020160020160010154848481548110613756576137566140b1565b906000526020600020906005020160000160010160008282546137799190614174565b92505081905550600c546137c086600101600001548686815481106137a0576137a06140b1565b60009182526020909120600590910201546137bb9190614109565b613916565b1315801561380b5750600c5461380886600101600101548686815481106137e9576137e96140b1565b9060005260206000209060050201600001600101546137bb9190614109565b13155b1561384857600186015485546001600160a01b0391821691160361383b578554613836906001612c75565b613848565b8554613848906002612c75565b600a61389e85858154811061385f5761385f6140b1565b6000918252602080832060408051808201825260059094029091018054845260010154838301528051808201909152838152908101929092529061392d565b116138cd5760008484815481106138b7576138b76140b1565b9060005260206000209060050201600401819055505b50505b806138da816140dd565b9150506134b9565b60006138f8846001600160a01b03851684613961565b949350505050565b6000612259825490565b60006126ad838361397e565b600080821215613929576122598261420b565b5090565b6000613946826020015184602001516137bb9190614109565b82518451613957916137bb91614109565b6126ad9190614174565b600082815260028401602052604081208290556138f884846139a8565b6000826000018281548110613995576139956140b1565b9060005260206000200154905092915050565b60008181526001830160205260408120546126ad908490849084906139f957508154600181810184556000848152602080822090930184905584548482528286019093526040902091909155612259565b506000612259565b6040518061012001604052806000815260200160006001600160a01b0316815260200160006001600160a01b03168152602001613a3c613abb565b8152602001613a49613abb565b8152602001600081526020016000815260200160006001600160a01b03168152602001600081525090565b828054828255906000526020600020908101928215613aaf579160200282015b82811115613aaf578251825591602001919060010190613a94565b50613929929150613b37565b6040518060e0016040528060006001600160a01b03168152602001613af3604051806040016040528060008152602001600081525090565b8152602001613b15604051806040016040528060008152602001600081525090565b8152602001600081526020016000815260200160608152602001606081525090565b5b808211156139295760008155600101613b38565b600060208284031215613b5e57600080fd5b81356001600160a01b03811681146126ad57600080fd5b600081518084526020808501945080840160005b83811015613bba57613ba78783515180518252602090810151910152565b6040969096019590820190600101613b89565b509495945050505050565b80516001600160a01b0316825260208082015180518285015280820151604085015260009161012091858301919050604085810151805160608901526020810151608089015250606086015160a08881019190915260808088015160c08a01528188015160e08a01969096528551948590526101408901958401949091906000905b80821015613c9c578651613c6689825180518252602090810151910152565b86810151613c80878b018280518252602090810151910152565b5085015188850152968201969585019560019190910190613c47565b5050505050505060c0830151848203610100860152613cbb8282613b75565b95945050505050565b634e487b7160e01b600052602160045260246000fd5b60088110613cf857634e487b7160e01b600052602160045260246000fd5b9052565b6000610120825184526020830151613d1f60208601826001600160a01b03169052565b506040830151613d3a60408601826001600160a01b03169052565b506060830151816060860152613d5282860182613bc5565b91505060808301518482036080860152613d6c8282613bc5565b91505060a0830151613d8160a0860182613cda565b5060c083015160c085015260e0830151613da660e08601826001600160a01b03169052565b50610100928301519390920192909252919050565b6000602080830181845280855180835260408601915060408160051b870101925083870160005b82811015613e1057603f19888603018452613dfe858351613cfc565b94509285019290850190600101613de2565b5092979650505050505050565b600060208284031215613e2f57600080fd5b5035919050565b8981526001600160a01b038981166020830152888116604083015261012060608301819052600091613e6a8483018b613bc5565b91508382036080850152613e7e828a613bc5565b9250613e8d60a0850189613cda565b8660c085015280861660e08501525050826101008301529a9950505050505050505050565b602080825282518282018190526000919060409081850190868401855b82811015613efd57815180516001600160a01b03168552860151868501529284019290850190600101613ecf565b5091979650505050505050565b600081518084526020808501945080840160005b83811015613bba57815187529582019590820190600101613f1e565b60208152613f546020820183516001600160a01b03169052565b60006020830151610140806040850152613f72610160850183613f0a565b91506040850151601f19858403016060860152613f8f8382613f0a565b92505060608501516080850152608085015160a085015260a085015160c085015260c085015160e085015260e0850151610100818187015280870151915050610120818187015280870151838701525050508091505092915050565b60008060006060848603121561400057600080fd5b833592506020840135915060408401356008811061401d57600080fd5b809150509250925092565b6020815260006126ad6020830184613cfc565b6003811061213d57600080fd5b6000806000806080858703121561405e57600080fd5b8435935060208501356140708161403b565b925060408501356140808161403b565b915060608501356140908161403b565b939692955090935050565b634e487b7160e01b600052604160045260246000fd5b634e487b7160e01b600052603260045260246000fd5b634e487b7160e01b600052601160045260246000fd5b6000600182016140ef576140ef6140c7565b5060010190565b81810381811115612259576122596140c7565b8181036000831280158383131683831282161715614129576141296140c7565b5092915050565b634e487b7160e01b600052601260045260246000fd5b60008261415557614155614130565b600160ff1b82146000198414161561416f5761416f6140c7565b500590565b8082018281126000831280158216821582161715614194576141946140c7565b505092915050565b80820260008212600160ff1b841416156141b8576141b86140c7565b8181058314821517612259576122596140c7565b80820180821115612259576122596140c7565b60006001600160ff1b0182016140ef576140ef6140c7565b60008261420657614206614130565b500790565b6000600160ff1b8201614220576142206140c7565b5060000390565b60008261423657614236614130565b500690565b8082028115828204841417612259576122596140c7565b60008261426157614261614130565b50049056fea2646970667358221220e1a16a7215aa89929e149593593302763c84f0a4e83e25729590c2d98b54979b64736f6c63430008130033",
  "devdoc": {
    "kind": "dev",
    "methods": {
      "owner()": {
        "details": "Returns the address of the current owner."
      },
      "renounceOwnership()": {
        "details": "Leaves the contract without owner. It will not be possible to call `onlyOwner` functions. Can only be called by the current owner. NOTE: Renouncing ownership will leave the contract without an owner, thereby disabling any functionality that is only available to the owner."
      },
      "transferOwnership(address)": {
        "details": "Transfers ownership of the contract to a new account (`newOwner`). Can only be called by the current owner."
      }
    },
    "version": 1
  },
  "userdoc": {
    "kind": "user",
    "methods": {},
    "version": 1
  },
  "storageLayout": {
    "storage": [
      {
        "astId": 7,
        "contract": "contracts/TheThirdLaw.sol:TheThirdLaw",
        "label": "_owner",
        "offset": 0,
        "slot": "0",
        "type": "t_address"
      },
      {
        "astId": 2081,
        "contract": "contracts/TheThirdLaw.sol:TheThirdLaw",
        "label": "addressToELO",
        "offset": 0,
        "slot": "1",
        "type": "t_struct(AddressToUintMap)900_storage"
      },
      {
        "astId": 2084,
        "contract": "contracts/TheThirdLaw.sol:TheThirdLaw",
        "label": "gameCost",
        "offset": 0,
        "slot": "4",
        "type": "t_uint256"
      },
      {
        "astId": 2087,
        "contract": "contracts/TheThirdLaw.sol:TheThirdLaw",
        "label": "feePercent",
        "offset": 0,
        "slot": "5",
        "type": "t_uint256"
      },
      {
        "astId": 2090,
        "contract": "contracts/TheThirdLaw.sol:TheThirdLaw",
        "label": "feeBalance",
        "offset": 0,
        "slot": "6",
        "type": "t_uint256"
      },
      {
        "astId": 2093,
        "contract": "contracts/TheThirdLaw.sol:TheThirdLaw",
        "label": "maxTorpedoes",
        "offset": 0,
        "slot": "7",
        "type": "t_uint256"
      },
      {
        "astId": 2096,
        "contract": "contracts/TheThirdLaw.sol:TheThirdLaw",
        "label": "maxMines",
        "offset": 0,
        "slot": "8",
        "type": "t_uint256"
      },
      {
        "astId": 2099,
        "contract": "contracts/TheThirdLaw.sol:TheThirdLaw",
        "label": "torpedoFuel",
        "offset": 0,
        "slot": "9",
        "type": "t_uint256"
      },
      {
        "astId": 2102,
        "contract": "contracts/TheThirdLaw.sol:TheThirdLaw",
        "label": "mineRange",
        "offset": 0,
        "slot": "10",
        "type": "t_uint256"
      },
      {
        "astId": 2105,
        "contract": "contracts/TheThirdLaw.sol:TheThirdLaw",
        "label": "torpedoAccel",
        "offset": 0,
        "slot": "11",
        "type": "t_int256"
      },
      {
        "astId": 2108,
        "contract": "contracts/TheThirdLaw.sol:TheThirdLaw",
        "label": "torpedoRange",
        "offset": 0,
        "slot": "12",
        "type": "t_int256"
      },
      {
        "astId": 2115,
        "contract": "contracts/TheThirdLaw.sol:TheThirdLaw",
        "label": "turnTimeout",
        "offset": 0,
        "slot": "13",
        "type": "t_uint256"
      },
      {
        "astId": 2118,
        "contract": "contracts/TheThirdLaw.sol:TheThirdLaw",
        "label": "active",
        "offset": 0,
        "slot": "14",
        "type": "t_bool"
      },
      {
        "astId": 2121,
        "contract": "contracts/TheThirdLaw.sol:TheThirdLaw",
        "label": "openGameId",
        "offset": 0,
        "slot": "15",
        "type": "t_uint256"
      },
      {
        "astId": 2126,
        "contract": "contracts/TheThirdLaw.sol:TheThirdLaw",
        "label": "players",
        "offset": 0,
        "slot": "16",
        "type": "t_mapping(t_address,t_struct(Player)2221_storage)"
      },
      {
        "astId": 2130,
        "contract": "contracts/TheThirdLaw.sol:TheThirdLaw",
        "label": "games",
        "offset": 0,
        "slot": "17",
        "type": "t_array(t_struct(Game)2198_storage)dyn_storage"
      }
    ],
    "types": {
      "t_address": {
        "encoding": "inplace",
        "label": "address",
        "numberOfBytes": "20"
      },
      "t_array(t_bytes32)dyn_storage": {
        "base": "t_bytes32",
        "encoding": "dynamic_array",
        "label": "bytes32[]",
        "numberOfBytes": "32"
      },
      "t_array(t_struct(Game)2198_storage)dyn_storage": {
        "base": "t_struct(Game)2198_storage",
        "encoding": "dynamic_array",
        "label": "struct TheThirdLaw.Game[]",
        "numberOfBytes": "32"
      },
      "t_array(t_struct(Mine)2255_storage)dyn_storage": {
        "base": "t_struct(Mine)2255_storage",
        "encoding": "dynamic_array",
        "label": "struct TheThirdLaw.Mine[]",
        "numberOfBytes": "32"
      },
      "t_array(t_struct(Torpedo)2251_storage)dyn_storage": {
        "base": "t_struct(Torpedo)2251_storage",
        "encoding": "dynamic_array",
        "label": "struct TheThirdLaw.Torpedo[]",
        "numberOfBytes": "32"
      },
      "t_array(t_uint256)dyn_storage": {
        "base": "t_uint256",
        "encoding": "dynamic_array",
        "label": "uint256[]",
        "numberOfBytes": "32"
      },
      "t_bool": {
        "encoding": "inplace",
        "label": "bool",
        "numberOfBytes": "1"
      },
      "t_bytes32": {
        "encoding": "inplace",
        "label": "bytes32",
        "numberOfBytes": "32"
      },
      "t_enum(Status)2072": {
        "encoding": "inplace",
        "label": "enum Status",
        "numberOfBytes": "1"
      },
      "t_int256": {
        "encoding": "inplace",
        "label": "int256",
        "numberOfBytes": "32"
      },
      "t_mapping(t_address,t_struct(Player)2221_storage)": {
        "encoding": "mapping",
        "key": "t_address",
        "label": "mapping(address => struct TheThirdLaw.Player)",
        "numberOfBytes": "32",
        "value": "t_struct(Player)2221_storage"
      },
      "t_mapping(t_bytes32,t_bytes32)": {
        "encoding": "mapping",
        "key": "t_bytes32",
        "label": "mapping(bytes32 => bytes32)",
        "numberOfBytes": "32",
        "value": "t_bytes32"
      },
      "t_mapping(t_bytes32,t_uint256)": {
        "encoding": "mapping",
        "key": "t_bytes32",
        "label": "mapping(bytes32 => uint256)",
        "numberOfBytes": "32",
        "value": "t_uint256"
      },
      "t_struct(AddressToUintMap)900_storage": {
        "encoding": "inplace",
        "label": "struct EnumerableMap.AddressToUintMap",
        "members": [
          {
            "astId": 899,
            "contract": "contracts/TheThirdLaw.sol:TheThirdLaw",
            "label": "_inner",
            "offset": 0,
            "slot": "0",
            "type": "t_struct(Bytes32ToBytes32Map)150_storage"
          }
        ],
        "numberOfBytes": "96"
      },
      "t_struct(Bytes32Set)1597_storage": {
        "encoding": "inplace",
        "label": "struct EnumerableSet.Bytes32Set",
        "members": [
          {
            "astId": 1596,
            "contract": "contracts/TheThirdLaw.sol:TheThirdLaw",
            "label": "_inner",
            "offset": 0,
            "slot": "0",
            "type": "t_struct(Set)1403_storage"
          }
        ],
        "numberOfBytes": "64"
      },
      "t_struct(Bytes32ToBytes32Map)150_storage": {
        "encoding": "inplace",
        "label": "struct EnumerableMap.Bytes32ToBytes32Map",
        "members": [
          {
            "astId": 145,
            "contract": "contracts/TheThirdLaw.sol:TheThirdLaw",
            "label": "_keys",
            "offset": 0,
            "slot": "0",
            "type": "t_struct(Bytes32Set)1597_storage"
          },
          {
            "astId": 149,
            "contract": "contracts/TheThirdLaw.sol:TheThirdLaw",
            "label": "_values",
            "offset": 0,
            "slot": "2",
            "type": "t_mapping(t_bytes32,t_bytes32)"
          }
        ],
        "numberOfBytes": "96"
      },
      "t_struct(Game)2198_storage": {
        "encoding": "inplace",
        "label": "struct TheThirdLaw.Game",
        "members": [
          {
            "astId": 2178,
            "contract": "contracts/TheThirdLaw.sol:TheThirdLaw",
            "label": "id",
            "offset": 0,
            "slot": "0",
            "type": "t_uint256"
          },
          {
            "astId": 2180,
            "contract": "contracts/TheThirdLaw.sol:TheThirdLaw",
            "label": "player1Address",
            "offset": 0,
            "slot": "1",
            "type": "t_address"
          },
          {
            "astId": 2182,
            "contract": "contracts/TheThirdLaw.sol:TheThirdLaw",
            "label": "player2Address",
            "offset": 0,
            "slot": "2",
            "type": "t_address"
          },
          {
            "astId": 2185,
            "contract": "contracts/TheThirdLaw.sol:TheThirdLaw",
            "label": "player1Ship",
            "offset": 0,
            "slot": "3",
            "type": "t_struct(Ship)2242_storage"
          },
          {
            "astId": 2188,
            "contract": "contracts/TheThirdLaw.sol:TheThirdLaw",
            "label": "player2Ship",
            "offset": 0,
            "slot": "12",
            "type": "t_struct(Ship)2242_storage"
          },
          {
            "astId": 2191,
            "contract": "contracts/TheThirdLaw.sol:TheThirdLaw",
            "label": "status",
            "offset": 0,
            "slot": "21",
            "type": "t_enum(Status)2072"
          },
          {
            "astId": 2193,
            "contract": "contracts/TheThirdLaw.sol:TheThirdLaw",
            "label": "value",
            "offset": 0,
            "slot": "22",
            "type": "t_uint256"
          },
          {
            "astId": 2195,
            "contract": "contracts/TheThirdLaw.sol:TheThirdLaw",
            "label": "currentPlayer",
            "offset": 0,
            "slot": "23",
            "type": "t_address"
          },
          {
            "astId": 2197,
            "contract": "contracts/TheThirdLaw.sol:TheThirdLaw",
            "label": "lastTurnTimestamp",
            "offset": 0,
            "slot": "24",
            "type": "t_uint256"
          }
        ],
        "numberOfBytes": "800"
      },
      "t_struct(Mine)2255_storage": {
        "encoding": "inplace",
        "label": "struct TheThirdLaw.Mine",
        "members": [
          {
            "astId": 2254,
            "contract": "contracts/TheThirdLaw.sol:TheThirdLaw",
            "label": "position",
            "offset": 0,
            "slot": "0",
            "type": "t_struct(Position)2260_storage"
          }
        ],
        "numberOfBytes": "64"
      },
      "t_struct(Player)2221_storage": {
        "encoding": "inplace",
        "label": "struct TheThirdLaw.Player",
        "members": [
          {
            "astId": 2200,
            "contract": "contracts/TheThirdLaw.sol:TheThirdLaw",
            "label": "ownerAddress",
            "offset": 0,
            "slot": "0",
            "type": "t_address"
          },
          {
            "astId": 2203,
            "contract": "contracts/TheThirdLaw.sol:TheThirdLaw",
            "label": "gameIds",
            "offset": 0,
            "slot": "1",
            "type": "t_array(t_uint256)dyn_storage"
          },
          {
            "astId": 2206,
            "contract": "contracts/TheThirdLaw.sol:TheThirdLaw",
            "label": "inviteIds",
            "offset": 0,
            "slot": "2",
            "type": "t_array(t_uint256)dyn_storage"
          },
          {
            "astId": 2208,
            "contract": "contracts/TheThirdLaw.sol:TheThirdLaw",
            "label": "victories",
            "offset": 0,
            "slot": "3",
            "type": "t_uint256"
          },
          {
            "astId": 2210,
            "contract": "contracts/TheThirdLaw.sol:TheThirdLaw",
            "label": "defaultVictories",
            "offset": 0,
            "slot": "4",
            "type": "t_uint256"
          },
          {
            "astId": 2212,
            "contract": "contracts/TheThirdLaw.sol:TheThirdLaw",
            "label": "defaultLosses",
            "offset": 0,
            "slot": "5",
            "type": "t_uint256"
          },
          {
            "astId": 2214,
            "contract": "contracts/TheThirdLaw.sol:TheThirdLaw",
            "label": "draws",
            "offset": 0,
            "slot": "6",
            "type": "t_uint256"
          },
          {
            "astId": 2216,
            "contract": "contracts/TheThirdLaw.sol:TheThirdLaw",
            "label": "losses",
            "offset": 0,
            "slot": "7",
            "type": "t_uint256"
          },
          {
            "astId": 2218,
            "contract": "contracts/TheThirdLaw.sol:TheThirdLaw",
            "label": "eloRating",
            "offset": 0,
            "slot": "8",
            "type": "t_uint256"
          },
          {
            "astId": 2220,
            "contract": "contracts/TheThirdLaw.sol:TheThirdLaw",
            "label": "currentShipId",
            "offset": 0,
            "slot": "9",
            "type": "t_uint256"
          }
        ],
        "numberOfBytes": "320"
      },
      "t_struct(Position)2260_storage": {
        "encoding": "inplace",
        "label": "struct TheThirdLaw.Position",
        "members": [
          {
            "astId": 2257,
            "contract": "contracts/TheThirdLaw.sol:TheThirdLaw",
            "label": "row",
            "offset": 0,
            "slot": "0",
            "type": "t_int256"
          },
          {
            "astId": 2259,
            "contract": "contracts/TheThirdLaw.sol:TheThirdLaw",
            "label": "col",
            "offset": 0,
            "slot": "1",
            "type": "t_int256"
          }
        ],
        "numberOfBytes": "64"
      },
      "t_struct(Set)1403_storage": {
        "encoding": "inplace",
        "label": "struct EnumerableSet.Set",
        "members": [
          {
            "astId": 1398,
            "contract": "contracts/TheThirdLaw.sol:TheThirdLaw",
            "label": "_values",
            "offset": 0,
            "slot": "0",
            "type": "t_array(t_bytes32)dyn_storage"
          },
          {
            "astId": 1402,
            "contract": "contracts/TheThirdLaw.sol:TheThirdLaw",
            "label": "_indexes",
            "offset": 0,
            "slot": "1",
            "type": "t_mapping(t_bytes32,t_uint256)"
          }
        ],
        "numberOfBytes": "64"
      },
      "t_struct(Ship)2242_storage": {
        "encoding": "inplace",
        "label": "struct TheThirdLaw.Ship",
        "members": [
          {
            "astId": 2223,
            "contract": "contracts/TheThirdLaw.sol:TheThirdLaw",
            "label": "ownerAddress",
            "offset": 0,
            "slot": "0",
            "type": "t_address"
          },
          {
            "astId": 2226,
            "contract": "contracts/TheThirdLaw.sol:TheThirdLaw",
            "label": "position",
            "offset": 0,
            "slot": "1",
            "type": "t_struct(Position)2260_storage"
          },
          {
            "astId": 2229,
            "contract": "contracts/TheThirdLaw.sol:TheThirdLaw",
            "label": "velocity",
            "offset": 0,
            "slot": "3",
            "type": "t_struct(Velocity)2265_storage"
          },
          {
            "astId": 2231,
            "contract": "contracts/TheThirdLaw.sol:TheThirdLaw",
            "label": "remainingTorpedoes",
            "offset": 0,
            "slot": "5",
            "type": "t_uint256"
          },
          {
            "astId": 2233,
            "contract": "contracts/TheThirdLaw.sol:TheThirdLaw",
            "label": "remainingMines",
            "offset": 0,
            "slot": "6",
            "type": "t_uint256"
          },
          {
            "astId": 2237,
            "contract": "contracts/TheThirdLaw.sol:TheThirdLaw",
            "label": "torpedoes",
            "offset": 0,
            "slot": "7",
            "type": "t_array(t_struct(Torpedo)2251_storage)dyn_storage"
          },
          {
            "astId": 2241,
            "contract": "contracts/TheThirdLaw.sol:TheThirdLaw",
            "label": "mines",
            "offset": 0,
            "slot": "8",
            "type": "t_array(t_struct(Mine)2255_storage)dyn_storage"
          }
        ],
        "numberOfBytes": "288"
      },
      "t_struct(Torpedo)2251_storage": {
        "encoding": "inplace",
        "label": "struct TheThirdLaw.Torpedo",
        "members": [
          {
            "astId": 2245,
            "contract": "contracts/TheThirdLaw.sol:TheThirdLaw",
            "label": "position",
            "offset": 0,
            "slot": "0",
            "type": "t_struct(Position)2260_storage"
          },
          {
            "astId": 2248,
            "contract": "contracts/TheThirdLaw.sol:TheThirdLaw",
            "label": "velocity",
            "offset": 0,
            "slot": "2",
            "type": "t_struct(Velocity)2265_storage"
          },
          {
            "astId": 2250,
            "contract": "contracts/TheThirdLaw.sol:TheThirdLaw",
            "label": "remainingFuel",
            "offset": 0,
            "slot": "4",
            "type": "t_uint256"
          }
        ],
        "numberOfBytes": "160"
      },
      "t_struct(Velocity)2265_storage": {
        "encoding": "inplace",
        "label": "struct TheThirdLaw.Velocity",
        "members": [
          {
            "astId": 2262,
            "contract": "contracts/TheThirdLaw.sol:TheThirdLaw",
            "label": "row",
            "offset": 0,
            "slot": "0",
            "type": "t_int256"
          },
          {
            "astId": 2264,
            "contract": "contracts/TheThirdLaw.sol:TheThirdLaw",
            "label": "col",
            "offset": 0,
            "slot": "1",
            "type": "t_int256"
          }
        ],
        "numberOfBytes": "64"
      },
      "t_uint256": {
        "encoding": "inplace",
        "label": "uint256",
        "numberOfBytes": "32"
      }
    }
  }
}